:020000040800F2
:100000000009002045010008813E000875380008FD
:10001000E13D0008810B0008315B00080000000092
:10002000000000000000000000000000AD420008D9
:100030002911000800000000C13F000851430008DA
:100040005F0100085F0100085F0100085F01000810
:100050005F0100085F0100085F0100085F01000800
:100060005F0100085F0100085F0100085F010008F0
:100070005F0100085F0100085F0100085F010008E0
:100080005F0100085F0100085F0100085F010008D0
:100090005F0100085F0100085F0100085F010008C0
:1000A0005F010008354400085F0100085F01000897
:1000B000454400085F010008554400085F0100083E
:1000C0005F0100085F0100085F0100085F01000890
:1000D0005F010008C14A0008D14A00085F0100081A
:1000E0005F0100085F0100085F0100085F01000870
:1000F0005F0100085F0100085F0100085F01000860
:100100005F0100085F0100085F0100085F0100084F
:100110005F0100085F0100085F0100085F0100083F
:100120005F0100085F0100085F0100085F0100082F
:10013000DFF80CD000F048F800480047795F00086D
:10014000000900200648804706480047FEE7FEE712
:10015000FEE7FEE7FEE7FEE7FEE7FEE7FEE7FEE777
:10016000DD43000831010008D2B201E000F8012BA4
:10017000491EFBD270470022F6E710B513460A4627
:1001800004461946FFF7F0FF204610BD421C10F848
:10019000011B0029FBD1801A704730B50B46014680
:1001A00000202022012409E021FA02F59D4205D316
:1001B00003FA02F5491B04FA02F52844151EA2F1C0
:1001C0000102F1DC30BD0000064C074D06E0E0689E
:1001D00040F0010394E8070098471034AC42F6D38E
:1001E000FFF7AAFF4C6200086C62000870B5044675
:1001F00000252068806800F00100F0B12068806868
:1002000020F001002168886001F024FC05460EE022
:1002100001F020FC401B022809D9A06A40F0100020
:10022000A062E06A40F00100E062012070BD206839
:10023000806800F001000028EAD10020F6E7000005
:1002400010B5C848007802287DD1C748007800283A
:10025000FAD1C648806944F6206188422FD3202114
:10026000C34801F0E9FB48B90121C24801F0E4FBB1
:1002700020B90221BF4801F0DFFBA0B10020BB493B
:100280008861C8620120BC490870FF20B5498870A8
:10029000BAA005F0DDFCC748007820F00400001D7E
:1002A000C44908700BE00320AE498870C14800784B
:1002B00020F00400BF490870BF4805F0C9FC2021A8
:1002C000AB4801F0B9FB002866D10121A94801F033
:1002D000B3FB0028F8D10221A64801F0ADFB0028AD
:1002E000F2D1A04880780328EED1B4A005F0B0FC8C
:1002F0000520A1490870B8480078401CB64908702C
:1003000099480078401C9849087096488078401CAD
:1003100094498870002095494862886100224021F4
:10032000944801F091FB00224FF48071914801F054
:100330008BFBAAA005F08CFC4FF47A7000F0F6FE5F
:1003400080218C4800E033E001F076FB012809D1E0
:10035000B1A005F07DFC9748007820F04000954959
:10036000087009E0B6A005F073FC9248007820F010
:10037000400040308F4908704FF400717D4801F013
:100380005BFB012809D1B8A005F062FC8948007820
:1003900020F02000874908704BE38648007820F061
:1003A0002000203083490870BAA005F051FC40E3DA
:1003B0008948007801283AD16C48406A47F23051A8
:1003C000884234D3BEA005F043FCC5A005F040FC34
:1003D00081480078401C804908700122110265485C
:1003E00001F032FB4FF4FA7000F0A0FECCA005F053
:1003F0002FFC4FF400715F4801F01EFB48B9D2A0FA
:1004000005F026FC6B48007820F020006949087050
:1004100009E0D8A005F01CFC6648007820F0200018
:1004200020306449087000205049486101E36A485F
:100430000078022836D14D48406942F21071884256
:1004400030D3D7A005F004FCDDA005F001FC624824
:100450000078401C6049087001224021454801F0A5
:10046000F3FAE3A005F0F4FB4FF4FA7000F05EFE3F
:100470008021404801F0E0FA48B9E6A005F0E8FB29
:100480004C48007820F040004A490870D1E2EBA0C7
:1004900005F0DEFB4748007820F040004030454939
:1004A0000870C6E24C480078032833D1EDA005F06F
:1004B000CFFB49480078401C4749087000224FF4A0
:1004C0008041F04801F0C0FAEFA005F0C1FB4FF405
:1004D0007A7000F02BFE4FF40041EA4801F0ACFACC
:1004E000012809D1F5A005F0B3FB3248007820F0CF
:1004F00080003049087009E0FAA005F0A9FB2D48FA
:10050000007820F0800080302A49087000201749C8
:1005100008628EE230480078042821D11348006A2E
:100520004EF6602188421BD3F8A005F091FB2A48C3
:100530000078401C2849087001229103D14801F03D
:1005400083FAFAA005F084FB4FF4FA7000F0EEFD98
:100550004FF40041CB4801F06FFA00B9FCE105E22D
:100560001AE200002C00002076000020D0020020BB
:10057000000801400010014066000020BFAACABC6C
:10058000C7BFD6C6C7E5CFB4B9FDB3CCD6D0A3ACF0
:10059000C3C5CEB4B9D8BBF2BCECB2E2B5BDD3D0C2
:1005A000B3E8CEEFA3ACB1A8BEAFCCE1CABEA1A365
:1005B0000D0A00005E00002044610008BFAACABC0A
:1005C000C7BFD6C6C7E5CFB4A3ACB2BDD6E8B6FEAA
:1005D000A1A30D0A0000000077000020BFAACABC3A
:1005E000C7BFD6C6C7E5CFB4B9FDB3CCD6D0A3AC90
:1005F000B4F2BFAAC7E5CFB4B1C3BACDD3EACBA298
:10060000B5E3BBF7A3ACB4F2BFAACAB1BCE43330C4
:10061000C3EBA1A30D0A0000BFAACABCC7BFD6C6C0
:10062000C7E5CFB4B9FDB3CCD6D0A3ACB4F2BFAA62
:10063000C7E5CFB4B1C3B3C9B9A6A1A30D0A0000E1
:10064000BFAACABCC7BFD6C6C7E5CFB4B9FDB3CC35
:10065000D6D0A3ACB4F2BFAAC7E5CFB4B1C3CAA782
:10066000B0DCA1A30D0A0000BFAACABCC7BFD6C692
:10067000C7E5CFB4B9FDB3CCD6D0A3ACB4F2BFAA12
:10068000D3EACBA2B5E7BBFAB3C9B9A6A1A30D0AB9
:1006900000000000BFAACABCC7BFD6C6C7E5CFB41A
:1006A000B9FDB3CCD6D0A3ACB4F2BFAAD3EACBA2E7
:1006B000B5E7BBFACAA7B0DCA1A30D0A0000000091
:1006C000BFAACABCC7BFD6C6C7E5CFB4B9FDB3CCB5
:1006D000D6D0A3ACB2BDD6E8C8FDA1A30D0A0000D8
:1006E000BFAACABCC7BFD6C6C7E5CFB4B9FDB3CC95
:1006F000D6D0A3ACB5BD3330C3EBA3ACB9D8B1D51C
:10070000D3EACBA2B5E7BBFAA3ACC7E5CFB4B1C37C
:10071000D4DAB4F2BFAA3130C3EBA1A30D0A0000B2
:10072000BFAACABCC7BFD6C6C7E5CFB4B9FDB3CC54
:10073000D6D0A3ACB9D8B1D5D3EACBA2B5E7BBFA32
:10074000A1A30D0A00000000BFAACABCC7BFD6C63D
:10075000C7E5CFB4B9FDB3CCD6D0A3ACB9D8B1D529
:10076000D3EACBA2B5E7BBFAB3C9B9A6A1A30D0AD8
:1007700000000000BFAACABCC7BFD6C6C7E5CFB439
:10078000B9FDB3CCD6D0A3ACB9D8B1D5D3EACBA2FE
:10079000B5E7BBFACAA7B0DCA1A30D0A00000000B0
:1007A000BFAACABCC7BFD6C6C7E5CFB4B9FDB3CCD4
:1007B000D6D0A3ACB2BDD6E8CBC40D0A0000000071
:1007C000BFAACABCC7BFD6C6C7E5CFB4B9FDB3CCB4
:1007D000D6D0A3ACB5BD3430C3EBA3ACB9D8B1D53A
:1007E000D3EACBA2C7E5CFB4B1C3A1A30D0A0000E1
:1007F000BFAACABCC7BFD6C6C7E5CFB4B9FDB3CC84
:10080000D6D0A3ACB9D8B1D5C7E5CFB4B1C3A1A3F5
:100810000D0A0000BFAACABCC7BFD6C6C7E5CFB481
:10082000B9FDB3CCD6D0A3ACB9D8B1D5C7E5CFB458
:10083000B1C3B3C9B9A6A1A30D0A0000BFAACABC1F
:10084000C7BFD6C6C7E5CFB4B9FDB3CCD6D0A3AC2D
:10085000B9D8B1D5C7E5CFB4B1C3CAA7B0DCA1A39D
:100860000D0A0000BFAACABCC7BFD6C6C7E5CFB431
:10087000B9FDB3CCD6D0A3ACB2BDD6E8CEE5A1A32A
:100880000D0A0000000C0140BFAACABCC7BFD6C6F3
:10089000C7E5CFB4B9FDB3CCD6D0A3ACB4F2BFAAF0
:1008A000B4B5B7E7BBFAA3ACB4F2BFAACAB1BCE413
:1008B0003630C3EBA1A30D0A00000000BFAACABCDA
:1008C000C7BFD6C6C7E5CFB4B9FDB3CCD6D0A3ACAD
:1008D000B4F2BFAAB4B5B7E7BBFAB3C9B9A6A1A32E
:1008E0000D0A0000BFAACABCC7BFD6C6C7E5CFB4B1
:1008F000B9FDB3CCD6D0A3ACB4F2BFAAB4B5B7E7B8
:10090000BBFACAA7B0DCA1A30D0A0000BFAACABCEB
:10091000C7BFD6C6C7E5CFB4B9FDB3CCD6D0A3AC5C
:10092000B2BDD6E8C1F9A1A30D0A0000BFAACABC96
:10093000C7BFD6C6C7E5CFB4B9FDB3CCD6D0A3AC3C
:10094000B5BD3630C3EBA3ACB9D8B1D5B4B5B7E7B4
:10095000BBFAA1A30D0A000037A005F079F94048C1
:10096000007820F080003E49087009E03DA005F0C5
:100970006FF93B48007820F08000803038490870DB
:1009800001228021414801F05FF841A005F060F9A3
:1009900000204D49C8634CE04C480078052848D1F8
:1009A0004948C06B4A49884243D34AA005F050F9F0
:1009B0000020464908704F4908704FA005F048F9DB
:1009C00000228021314801F03FF858A005F040F99D
:1009D00000206149087008460178002005F076FA89
:1009E0005E4800785E4988705C484078C8705B4813
:1009F000807808715948C0784871042088710020B7
:100A0000C8710A21564803F017FA01280FD14FF692
:100A1000FF730A225249534802F052FD52A005F0DA
:100A200017F901205549087000202749C8620120A4
:100A300010BD0020FCE70000BFAACABCC7BFD6C6D5
:100A4000C7E5CFB4B9FDB3CCD6D0A3ACB9D8B1D536
:100A5000B4B5B7E7BBFAB3C9B9A6A1A30D0A0000A4
:100A60005E000020BFAACABCC7BFD6C6C7E5CFB4C8
:100A7000B9FDB3CCD6D0A3ACB9D8B1D5B4B5B7E72E
:100A8000BBFACAA7B0DCA1A30D0A0000000C01400C
:100A9000BFAACABCC7BFD6C6C7E5CFB4B9FDB3CCE1
:100AA000D6D0A3ACB4F2BFAAD7CFCDE2CFDFCFFB75
:100AB000B6BEB5C6A3ACB4F2BFAACAB1BCE431326B
:100AC00030C3EBA1A30D0A00D00200207700002064
:100AD000C0D40100BFAACABCC7BFD6C6C7E5CFB441
:100AE000B9FDB3CCD6D0A3ACB2BDD6E8C6DFA1A3C6
:100AF0000D0A000076000020BFAACABCC7BFD6C638
:100B0000C7E5CFB4B9FDB3CCD6D0A3ACB5BD3132B7
:100B100030C3EBA3ACB9D8B1D5D7CFCDE2CFDFCFBF
:100B2000FBB6BEB5C6A1A30D0A000000BFAACABC91
:100B3000C7BFD6C6C7E5CFB4B9FDB3CCD6D0A3AC3A
:100B4000B9D8B1D5D7CFCDE2CFDFCFFBB6BEB5C6D2
:100B5000A1A30D0A000000002C0000205A00002074
:100B60004500002040040020D7D4B6AFC7E5CFB47D
:100B7000CDEAB3C9A1A30D0A000000006600002061
:100B800000BFFEE710B529480078D0B928480078A2
:100B9000B8B926480078401C244908704FF47A7090
:100BA00000F0C4FA00220121224800F04DFF4FF46A
:100BB000FA5000F0BBFA012211461E4800F044FF33
:100BC0001AE01A480078022816D118480078401C0C
:100BD000164908700120164908700121022005F00D
:100BE00075F90120144988700020144908701449CF
:100BF000087014A005F02CF81C480078022809DBC6
:100C00001B480078052805D100201949087019A053
:100C100005F01EF815480078032805DB0348007826
:100C2000012801D003F044FB10BD0000300000207B
:100C300031000020000801402C000020610000204D
:100C40005E00002057494649C4A3BFE9C5E4D6C3A6
:100C50002FC1ACBDD3B3C9B9A621BFAACABCD5FDAB
:100C6000B3A3B9A4D7F72E0D0A0000006500002039
:100C700064000020CEB4CAD5B5BDD0C4CCF8BBD872
:100C8000B8B4A3ACCDF8C2E7B6CFBFAAA1A30D0AF2
:100C90000000000010B56E4800786E4908706E487C
:100CA0000078042803DD6C480078072803DB042063
:100CB0006A49087012E06A48007818B10220674952
:100CC00008700BE062480078022803D103206349D2
:100CD000087003E05E480078604908702021614890
:100CE00000F0AAFE604908700846007870B95F48B5
:100CF000007801280AD1012204215D4800F0A4FEF9
:100D000000205A49087005205A4908705648007852
:100D100050BB56480078022803D054480078032876
:100D200022D101220421524800F08EFE4FF4FA70C5
:100D300000F0FCF90821504800F07EFE012804D1A3
:100D400001214E4880F8141103E000214B4880F83F
:100D50001411002045490870494948630520454958
:100D600008700020474908704548406B48F6B801B4
:100D700088423DD93C480078012839D14248007862
:100D8000002835D000203E4948634048007840495B
:100D900088703E484078C8703C48807808713B486D
:100DA000C07848710220887136480078C87135488B
:100DB0000078401C334908700A21354803F03CF89C
:100DC000012815D14FF6FF730A223149314802F04C
:100DD00077FB2C480078C0EBC00000EB80012EA010
:100DE00004F036FF01202349087000202449C8621E
:100DF00031480078012812D12148806B43F69821B0
:100E000088420CD900201E4988632B4908700122B2
:100E10001103144800F018FE28A004F019FF26481A
:100E20000078022812D11648406942F210718842B7
:100E30000CD90020124948611F4908700122110293
:100E4000084800F001FE21A004F002FF10BD0000E0
:100E50002C000020590000206400002067000020C2
:100E60005E000020000801406900002060000020B2
:100E70000014014066000020000C01409400002096
:100E8000D002002062000020310000205A00002023
:100E90004500002040040020B3A4CAB1BCE4C3C58F
:100EA000BFAAC6F4B1A8BEAFA3ACD2D12564C3EB30
:100EB000A1A30D0A0000000063000020CDA3D6B955
:100EC000CEB9CBAEA1A30D0A00000000CDA3D6B9C8
:100ED000CEB9CAB3A1A30D0A0000000010B5864820
:100EE000007802287ED185480078122821D2DFE8D8
:100EF00000F00921ED34ED4BED62ED7AED91EDA8B6
:100F0000EDBFEDD67D480078401C7C49087000227A
:100F100002217B4800F098FD4FF4FA7000F006F9CA
:100F200001220221764800F08FFD4FF4FA6000F0B4
:100F3000FDF8CBE071480078401C70490870714999
:100F40000868FFF723F984B26E484FF6FF73224614
:100F500001686D4802F0B4FAB8E068480078401CB7
:100F6000664908704FF47A7000F0E0F86549486807
:100F7000FFF70CF984B263484FF6FF7322464168CD
:100F8000614802F09DFAA1E05C480078401C5B4992
:100F900008704FF4FA7000F0C9F85A498868FFF7F2
:100FA000F5F884B257484FF6FF73224681685648D9
:100FB00002F086FA8AE051480078401C4F490870D8
:100FC0004FF4FA7000F0B2F84E49C868FFF7DEF847
:100FD00084B24C484FF6FF732246C1684A4802F07B
:100FE0006FFA73E086E045480078401C434908707A
:100FF0004FF4FA7000F09AF842490869FFF7C6F812
:1010000084B240484FF6FF73224601693E4802F021
:1010100057FA5BE039480078401C384908704FF4B3
:10102000FA7000F083F837498869FFF7AFF884B2A7
:1010300034484FF6FF7322468169334802F040FA84
:1010400044E02E480078401C2C4908704FF4FA7098
:1010500000F06CF82B49C869FFF798F884B229486A
:101060004FF6FF732246C169274802F029FA2DE0A6
:1010700022480078401C214908704FF4FA7000F0B3
:1010800055F82049086AFFF781F884B21D484FF6E9
:10109000FF732246016A1C4802F012FA16E0174854
:1010A0000078401C154908704FF4FA7000F03EF8C3
:1010B0001449486AFFF76AF884B212484FF6FF7382
:1010C0002246416A104802F0FBF900BF00BF0B48FE
:1010D000007812280EDA0D48806944F620618842B3
:1010E00008D300200949886109A004F0B1FD00205F
:1010F00002490870002010BD31000020320000209D
:10110000000801400400002040040020D00200201C
:101110005553522D4333323220C5E4D6C3B2BBB34C
:10112000C9B9A6A1A30D0A007047000031B500F0AF
:10113000D9FE4FF47A71B0FBF1F4204603F0DEF8EB
:1011400008B100BFFEE706490098086000BF0448E8
:1011500000680028FBD14FF0E0210861886138BDAC
:101160000000002031B500F0BDFE0B49B0FBF1F4EA
:10117000204603F0C3F808B100BFFEE70749009816
:10118000086000BF054800680028FBD14FF0E0214F
:101190000861886138BD000040420F000000002057
:1011A0007047000010B500F05BFC1649086000F0C5
:1011B0005DFC1449486000F05FFC124988600846F5
:1011C00000684008496800EB91000E49896800EB0F
:1011D000D1000D49086008460068000E0B490870F0
:1011E00009480068000C487007480088000A8870A9
:1011F00005480078C8700448016805A004F028FD7F
:1012000010BD0000C40200206C0000205A00002025
:10121000C9E8B1B86964A3BA25640D0A00000000EA
:1012200038B5024600230020009000BF92F8240049
:10123000012801D1022038BD012082F8240000BF1E
:101240004868072812D21068406B0C79641E04EBC2
:1012500084051F24AC40A0430D796D1E05EB850568
:101260000C68AC4020431468606327E048680D2890
:1012700012D21068006B0C79E41F04EB84051F2464
:10128000AC40A0430D79ED1F05EB85050C68AC4023
:1012900020431468206311E01068C06A0C790D3C8B
:1012A00004EB84051F24AC40A0430D790D3D05EBF4
:1012B00085050C68AC4020431468E06208680A2881
:1012C00012D31068C0680C780A3C04EB440507246C
:1012D000AC40A0430D780A3D05EB45058C68AC4059
:1012E00020431468E0600FE0106800690C7804EB9C
:1012F00044050724AC40A0430D7805EB45058C68F8
:10130000AC402043146820610868102802D00868A7
:10131000112827D1174C1068A0421ED11068806890
:1013200000F40000F0B91068806840F40000146810
:10133000A0600868102815D10F4800680F4CB0FB5A
:10134000F4F000EB80004000009002E00098401EA6
:10135000009000980028F9D104E0906A40F0200045
:101360009062012300BF002082F8240000BF1846CD
:1013700061E70000002401408C00002040420F0083
:101380002DE9F0410446002700250026A84614B99F
:101390000120BDE8F081A06810B1207D00B100BF40
:1013A000A06A30B90020E06284F82400204600F0F2
:1013B00097F82046FEF71AFF0746A06A00F01000D3
:1013C000002873D1002F7ED1A06A20F4885040F00D
:1013D0000200A0623F4AD4E90001904208D1E069CE
:1013E000B0F5402F02D14FF4002002E0E06900E0A8
:1013F000E0690143207B41EA40000643A068B0F564
:10140000807F02D0A068012802D14FF4807000E0F4
:1014100000200543207D012811D1207B38B9A06927
:10142000401E4FF4006141EA4030054307E0A06AE6
:1014300040F02000A062E06A40F00100E062206815
:10144000406820F46940284321684860206880682B
:1014500021490840304321688860A068B0F5807F4A
:1014600002D0A068012802D14FF4807000E0002073
:10147000B0F5807F03D1208A401E4FEA00582068D3
:10148000C06A20F4700040EA08002168C862206841
:10149000806812490840B04209D10020E062A06A89
:1014A00020F0020040F00100A06211E00BE0A06A11
:1014B00020F0020040F01000A062E06A40F001005D
:1014C000E062012704E0A06A40F01000A06201275A
:1014D00038465EE7003C0140FDF7E1FFFE0E1FFFCE
:1014E00010B586B004460020029003900490059049
:1014F00014492068884222D100BF1348806940F413
:101500000070114988610846806900F400700190FC
:1015100000BF00BF00BF0846806940F0040088613A
:101520000846806900F00400019000BF00BF102051
:1015300002900320039002A9044800F0DDF806B0F1
:1015400010BD0000002401400010024000080140CE
:1015500070B50446002594F82100022803D0042029
:10156000A0630125C1E02068006820F00E0021681A
:1015700008602068006820F00100216808605C496C
:101580002068884252D95A4978392068884201D166
:10159000012047E0564964392068884201D1102073
:1015A00040E0534950392068884201D1801539E024
:1015B0004F493C392068884201D1801432E04C49BF
:1015C00028392068884202D14FF480302AE0484907
:1015D00014392068884202D14FF4801022E0444937
:1015E0002068884201D140041CE0424920688842BA
:1015F00001D1012016E03F4914312068884201D111
:1016000010200FE03B4928312068884201D1801525
:1016100008E038493C312068884201D1801401E05B
:101620004FF480303349091F086051E03049783960
:101630002068884201D1012047E02D4964392068A3
:10164000884201D1102040E0294950392068884261
:1016500001D1801539E026493C392068884201D102
:10166000801432E0224928392068884202D14FF4A0
:1016700080302AE01E4914392068884202D14FF494
:10168000801022E01A492068884201D140041CE001
:1016900018492068884201D1012016E0154914310B
:1016A0002068884201D110200FE0124928312068BB
:1016B000884201D1801508E00E493C3120688842FB
:1016C00001D1801401E04FF480300949803948602D
:1016D000012084F8210000BF002084F8200000BF12
:1016E000606B10B12046616B8847284670BD0000D2
:1016F00080000240080402402DE9F847024600231A
:101700009C467BE14FF0010808FA03F4D1F8008011
:1017100008EA0400A0427DD1DFF8F4A2D1F80480E9
:10172000A8EB0A09D0453AD014DCB8F1030F50D029
:1017300009DCB8F1000F31D0B8F1010F1CD0B8F1BD
:10174000020F49D120E0B8F1110F18D0B8F1120FF3
:1017500042D11EE0B9F5881F25D006DCB9F5803FDF
:1017600020D0B9F5801F37D11AE0B9F5001F18D085
:10177000B9F5041F30D117E0D1F80CC02DE0D1F835
:101780000C8008F1040C28E0D1F80C8008F1080C5A
:1017900023E0D1F80C8008F10C0C1EE000BF00BF64
:1017A00000BF00BF00BF00BFD1F80880B8F1000F34
:1017B00002D14FF0040C0BE0D1F80880B8F1010F12
:1017C00003D14FF0080C146102E04FF0080C546193
:1017D00003E04FF0000C00E000BF00BFFF2801D87D
:1017E000904601E002F104084646FF2802D84FEA7D
:1017F000830803E0A3F108084FEA88084746D6F8B3
:1018000000804FF00F0909FA07F928EA09080CFAD5
:1018100007F900E07AE048EA0908C6F80080D1F844
:10182000048008F08058B8F1805F6FD100BFDFF806
:10183000E481D8F8188048F00108DFF8D891C9F899
:101840001880C846D8F8188008F00108CDF8008044
:1018500000BF00BF4FEAB9384FEA930958F8295042
:101860004FEA83784FEA18794FF00F0808FA09F821
:1018700025EA0805DFF8A081424502D14FF00008B3
:1018800024E0DFF89881424502D14FF001081DE0C5
:10189000DFF88C81424502D14FF0020816E0DFF8F4
:1018A0008481424502D14FF003080FE0DFF87881D0
:1018B000424502D14FF0040808E0DFF8708142454C
:1018C00002D14FF0050801E04FF006084FEA837996
:1018D0004FEA197908FA09F848EA0505DFF8508156
:1018E0004FEA930948F82950D1F8048008F4803869
:1018F000B8F5803F0BD1DFF83C81D8F8008048EA8A
:101900000008DFF83091C9F800800AE075E0DFF8E0
:101910002481D8F8008028EA0008DFF81891C9F877
:101920000080D1F8048008F40038B8F5003F0ED1EB
:10193000DFF8008108F10408D8F8008048EA0008C0
:10194000DFF8F09009F10409C9F800800DE0DFF834
:10195000E48008F10408D8F8008028EA0008DFF8DD
:10196000D49009F10409C9F80080D1F8048008F482
:101970008018B8F5801F0ED1DFF8B88008F108088C
:10198000D8F8008048EA0008DFF8A89009F10809B3
:10199000C9F800800DE0DFF89C8008F10808D8F84D
:1019A000008028EA0008DFF88C9009F10809C9F8DE
:1019B0000080D1F8048008F40018B8F5001F0ED19B
:1019C000DFF8708008F10C08D8F8008048EA0008B9
:1019D000DFF8609009F10C09C9F800800DE0DFF82C
:1019E000548008F10C08D8F8008028EA0008DFF8D5
:1019F000449009F10C09C9F800805B1CD1F8008003
:101A000028FA03F8B8F1000F7FF47CAEBDE8F88740
:101A1000000011100010024000080140000C0140BD
:101A2000001001400014014000180140001C01405A
:101A30000800014000040140024693680B400BB1CE
:101A4000012000E0002070470AB1016101E00B04B1
:101A50000361704701480068704700008000002063
:101A60000148006870470000E8F7FF1F0148006860
:101A700070470000ECF7FF1F014800687047000046
:101A8000F0F7FF1F0448006820B103480068401EBB
:101A900001490860704700000000002010B50848A8
:101AA000006840F0100006490860032000F0A8F824
:101AB000002000F007F800F02BF8002010BD000017
:101AC0000020024070B504460E4800784FF47A7149
:101AD000B1FBF0F00C490968B1FBF0F5284600F0C5
:101AE000A3FC08B1012070BD102C07D200222146B2
:101AF000501E00F047F80548046001E00120F2E7BD
:101B00000020F0E7880000208C00002084000020E6
:101B100008B500BF1148806940F001000F49886195
:101B20000846806900F00100009000BF00BF00BFC0
:101B30000846C06940F08050C8610846C06900F09E
:101B40008050009000BF00BF00BF0549486820F0EA
:101B5000E06040F00070486000BF08BD0010024027
:101B60000000014001460846002809DB00F01F0381
:101B700001229A4043099B0003F1E023C3F80021AE
:101B800000BF70472DE9F05F80460D4616460027DE
:101B900004F06EF8074639462A46334601F007003E
:101BA000C0F1070ABAF1040F02D94FF0040A01E0AC
:101BB000C0F1070AD14600F1040ABAF1070F02D2B8
:101BC0004FF0000A01E0A0F1030AD4464FF0010AE9
:101BD0000AFA09FAAAF1010A0AEA020A0AFA0CFA4E
:101BE0004FF0010B0BFA0CFBABF1010B0BEA030BF3
:101BF0004AEA0B042146404604F042F8BDE8F09F53
:101C000000BF00F00702064B19684FF6FF031940AA
:101C1000044B0B4343EA0221014B196000BF70479C
:101C20000CED00E00000FA05F8B50446002600259A
:101C3000207800F0010000286BD000274348C069DD
:101C400000F0805070B900BF4048C06940F080503B
:101C50003E49C8610846C06900F08050009000BF4E
:101C600000BF01273A48006800F48070B0B93848D6
:101C7000006840F4807036490860FFF7EBFE0646C6
:101C800006E0FFF7E7FE801B642801D90320F8BDBA
:101C90002F48006800F480700028F2D02B48006ABA
:101CA00000F440752DB3A08800F44070A84220D005
:101CB0002648006A20F4407501202649086000206B
:101CC00008602248056205F0010090B1FFF7C2FEEE
:101CD000064608E0FFF7BEFE801B41F288318842CD
:101CE00001D90320D3E71948006A00F00200002858
:101CF000F0D01648006A20F4407061680843134928
:101D00000862012F04D10846C06920F08050C861E4
:101D100000BF207800F00200022807D10B4840687D
:101D200020F44040A168084308494860207800F04A
:101D30001000102807D10548406820F48000616930
:101D40000843024948600020A1E70000001002405B
:101D5000007000404004424270B504460D460CB984
:101D6000012070BD5A48006800F00700A8420ED25A
:101D70005748006820F00700284355490860084686
:101D8000006800F00700A84201D00120E9E72078B0
:101D900000F0020002281DD1207800F00400042881
:101DA00005D14C48406840F4E0604A4948602078DA
:101DB00000F00800082805D14648406840F460500B
:101DC000444948604348406820F0F000A168084357
:101DD00040494860207800F0010078B3606801282D
:101DE00006D13C48006800F4003090B90120B8E703
:101DF0006068022806D13748006800F0007040B9DA
:101E00000120AEE73348006800F0020008B9012065
:101E1000A7E73048406820F00300616808432D4977
:101E20004860FFF717FE064609E0FFF713FE801B28
:101E300041F28831884202D9032092E707E0254821
:101E4000406800F00C006168B0EB810FEDD12048D4
:101E5000006800F00700A8420ED91D48006820F075
:101E6000070028431A4908600846006800F0070088
:101E7000A84201D0012074E7207800F00400042873
:101E800007D11448406820F4E060E1680843114934
:101E90004860207800F00800082808D10D48406804
:101EA00020F46050216940EAC1000A49486000F00E
:101EB0003FF808494968C1F30311074A515CC8401B
:101EC0000649086006480068FFF7FCFD002048E767
:101ED00000200240001002402C6100088C0000200D
:101EE0008400002001480068704700008C0000203A
:101EF00000B5FFF7F7FF04494968C1F30221034A1F
:101F0000515CC84000BD0000001002403C61000868
:101F100000B5FFF7E7FF04494968C1F3C221034A4E
:101F2000515CC84000BD0000001002403C61000848
:101F3000F0B585B00FF26C0C9CE8E01001A8A0E8A9
:101F4000E0101CA52D68009500210022002300242C
:101F50000020194D696801F00C05F5B1042D02D07F
:101F6000082D19D101E0154819E001ADC1F38346F0
:101F7000AC5D01F4803555B10F4D6D68C5F340453A
:101F80001DF805200D4D6543B5FBF2F302E00C4D45
:101F900004FB05F3184602E000BF084800BF00BF7D
:101FA00005B0F0BD02030405060708090A0B0C0D75
:101FB0000E0F1010010200000010024000127A0003
:101FC00000093D00F8B504460CB90120F8BD2078A1
:101FD00000F00100002878D0F848406800F00C00BC
:101FE00004280CD0F548406800F00C00082811D1F6
:101FF000F248406800F48030B0F5803F0AD1EF48E5
:10200000006800F4003000285FD0606800285CD1D0
:102010000120DBE700BF6068B0F5803F06D1E748EC
:10202000006840F48030E549086028E0606858B9ED
:10203000E248006820F48030E04908600846006803
:1020400020F4802008601AE06068B0F5A02F0BD162
:10205000DA48006840F48020D849086008460068E3
:1020600040F4803008600AE0D448006820F48030F2
:10207000D24908600846006820F48020086000BF4C
:10208000606888B1FFF7E6FC054606E0FFF7E2FC72
:10209000401B642801D9032098E7C848006800F471
:1020A00000300028F2D010E0FFF7D4FC054606E02F
:1020B000FFF7D0FC401B642801D9032086E7BF4806
:1020C000006800F400300028F2D1207800F002000F
:1020D000022857D1B948406800F00C0050B1B74809
:1020E000406800F00C00082818D1B448406800F49B
:1020F000803098B9B148006800F0020020B1206932
:10210000012801D0012061E7AC48006820F0F80008
:10211000616940EAC100A949086033E02069E8B17B
:102120000120A7490860FFF795FC054606E0FFF788
:1021300091FC401B022801D9032047E79F48006813
:1021400000F002000028F2D09C48006820F0F8005F
:10215000616940EAC1009949086013E0002098498C
:102160000860FFF777FC054606E0FFF773FC401BAD
:10217000022801D9032029E79048006800F00200F6
:102180000028F2D1207800F0080008282DD1A0699D
:10219000B8B101208B490860FFF75CFC054606E0FA
:1021A000FFF758FC401B022801D903200EE78348A3
:1021B000406A00F002000028F2D0012001F002FF86
:1021C00013E000207F490860FFF744FC054606E065
:1021D000FFF740FC401B022801D90320F6E67748B0
:1021E000406A00F002000028F2D1207800F00400DC
:1021F000042873D100277148C06900F0805070B97D
:1022000000BF6E48C06940F080506C49C861084604
:10221000C06900F08050009000BF00BF01276A48ED
:10222000006800F48070B0B96748006840F48070BE
:1022300065490860FFF70EFC054606E0FFF70AFC5B
:10224000401B642801D90320C0E65F48006800F401
:1022500080700028F2D000BFE068012806D15748FE
:10226000006A40F001005549086227E0E06858B96B
:102270005248006A20F00100504908620846006A8E
:1022800020F00400086219E0E06805280BD14B48F3
:10229000006A40F00400494908620846006A40F0BC
:1022A000010008620AE04548006A20F00100434945
:1022B00008620846006A20F00400086200BFE06877
:1022C000A0B1FFF7C7FB054609E0FFF7C3FB401BC2
:1022D00041F28831884202D9032077E622E037486C
:1022E000006A00F002000028EFD012E0FFF7B2FB16
:1022F000054608E0FFF7AEFB401B41F288318842FB
:1023000001D9032062E62D48006A00F0020000288F
:10231000F0D1012F05D12948C06920F0805027490C
:10232000C86100BFE069C8B32448406800F00C00F1
:10233000082860D0E069022848D1002020490866BA
:10234000FFF788FB054606E0FFF784FB401B0228E9
:1023500001D903203AE61948006800F0007000280F
:10236000F2D1206AB0F5803F07D11448406820F4CC
:102370000030A168084311494860D4E908010843C6
:102380000E49496821F4741108430C494860012042
:102390000B490866FFF75EFB054607E03DE0FFF7E7
:1023A00059FB401B022801D903200FE603480068AF
:1023B00000F000700028F2D02FE000000010024072
:1023C0000000424280044242007000400020144954
:1023D0000866FFF73FFB054606E0FFF73BFB401BA7
:1023E000022801D90320F1E50E48006800F00070D2
:1023F0000028F2D111E0E069012800D1E6E50948A2
:10240000466806F48031206A814204D106F47011D6
:10241000606A814201D00120D8E50020D6E50000A5
:10242000000042420010024070B504462546681E76
:10243000B0F1807F01D301200FE0681E4FF0E02152
:1024400048610F214FF0FF3003F01AFC00204FF0DD
:10245000E021886107200861002070BD7047704747
:1024600010B5024600BF92F83C00012801D10220BD
:1024700010BD012082F83C0000BF022082F83D0020
:10248000106843681068846823F070030868034389
:1024900024F0800448680443106843601068846036
:1024A000012082F83D0000BF002082F83C0000BF00
:1024B00000BFDDE710B504460CB9012010BD94F84B
:1024C0003D0028B9002084F83C00204600F00CF8BC
:1024D000022084F83D00211D206801F0C3FF012087
:1024E00084F83D000020E9E738B504462849206813
:1024F000884216D100BF2748806940F40060254912
:1025000088610846806900F40060009000BF00BF49
:10251000002211461920FFF735FB1920FFF722FB97
:1025200034E02068B0F1804F16D100BF1948C0696F
:1025300040F001001749C8610846C06900F0010079
:10254000009000BF00BF002211461C20FFF71AFBBD
:102550001C20FFF707FB19E00F492068884215D1BE
:1025600000BF0C48C06940F004000A49C861084631
:10257000C06900F00400009000BF00BF00221146B7
:102580001E20FFF7FFFA1E20FFF7ECFA38BD00000F
:10259000002C01400010024000080040014608687D
:1025A000C06840F001000B68D8600868806800F0DF
:1025B0000702062A05D00868006840F001000B6891
:1025C0001860002070472DE9F04104460D4600BF19
:1025D00094F83C00012802D10220BDE8F0810120DE
:1025E00084F83C0000BF022084F83D002068866823
:1025F00026F0770626F47F462068866028685028F3
:1026000033D00CDC202850D004DC00284BD010281C
:1026100051D149E0302849D040284CD139E06028D8
:102620002DD0702807D0B0F5805F03D0B0F5005FE3
:1026300041D10DE040E0D5E902136A68206801F05D
:1026400070FF2068866846F077062068866033E071
:10265000D5E902136A68206801F063FF206880688A
:1026600040F480402168886026E0EA686968206854
:1026700002F048F85021206801F05EFF1CE0EA6893
:102680006968206802F051F86021206801F054FF69
:1026900012E0EA686968206802F034F84021206896
:1026A00001F04AFF08E000BF00BF00BF29682068B2
:1026B00001F042FF00E000BF00BF012084F83D00B0
:1026C00000BF002084F83C0000BF00BF85E77047D2
:1026D00010B5044620680069C0F34000D8B12068F6
:1026E000C068C0F34000B0B16FF00200216808611B
:1026F000012020772068806900F0030018B120468F
:10270000FFF7E5FF05E0204600F0DAF8204600F08C
:1027100077F90020207720680069C0F38000D8B1E5
:102720002068C068C0F38000B0B16FF00400216879
:102730000861022020772068806900F4407018B199
:102740002046FFF7C4FF05E0204600F0B9F8204618
:1027500000F056F90020207720680069C0F3C0001F
:10276000D8B12068C068C0F3C000B0B16FF00800F5
:1027700021680861042020772068C06900F0030008
:1027800018B12046FFF7A3FF05E0204600F098F8B7
:10279000204600F035F90020207720680069C0F35A
:1027A0000010D8B12068C068C0F30010B0B16FF05D
:1027B000100021680861082020772068C06900F4B3
:1027C000407018B12046FFF782FF05E0204600F078
:1027D00077F8204600F014F900202077206800697F
:1027E00000F0010058B12068C06800F0010030B16D
:1027F0006FF0010021680861204600F073F920683D
:102800000069C0F3C01058B12068C068C0F3C010A0
:1028100030B16FF08000216808612046FFF71EFE8E
:1028200020680069C0F3801058B12068C068C0F308
:10283000801030B16FF0400021680861204600F040
:102840007FF920680069C0F3401058B12068C06863
:10285000C0F3401030B16FF02000216808612046BD
:10286000FFF7FDFD10BD000010B586B00446002046
:1028700002900390049005900E492068884216D17A
:1028800000BF0D48806940F008000B498861084688
:10289000806900F00800019000BF00BF4020029056
:1028A00002200390059002A90448FEF725FF06B018
:1028B00010BD00000008004000100240000C014064
:1028C000704770B504460D46164600BF94F83C00AC
:1028D000012801D1022070BD012084F83C0000BF16
:1028E000022084F83D0036B1042E1BD0082E31D0D2
:1028F0000C2E5ED145E02946206801F027FE2068B5
:10290000806940F00800216888612068806920F0B3
:10291000040021688861206880692969084321686A
:10292000886147E02946206801F048FE20688069F8
:1029300040F40060216888612068806920F480602C
:102940002168886120688069296940EA012021683E
:1029500088612FE02946206801F06EFE2068C0697A
:1029600040F008002168C8612068C06920F00400B8
:102970002168C8612068C069296908432168C86165
:1029800018E02946206801F093FE2068C06940F4F1
:1029900000602168C8612068C06920F480602168F7
:1029A000C8612068C069296940EA01202168C861BE
:1029B00000E000BF00BF012084F83D0000BF002000
:1029C00084F83C0000BF00BF85E710B504460CB991
:1029D000012010BD94F83D0028B9002084F83C0087
:1029E000204600F00CF8022084F83D00211D2068EC
:1029F00001F038FD012084F83D000020E9E7704730
:102A00007047000070B504460E460122314620682A
:102A100001F076FD0F492068884203D00E492068F6
:102A2000884201D1012000E0002028B12068406CDC
:102A300040F40040216848642068806800F0070581
:102A4000062D05D02068006840F00100216808606C
:102A5000002070BD002C01400034014030B5044618
:102A60000D4600222946206801F04AFD1B492068D6
:102A7000884203D01A492068884201D1012000E031
:102A8000002090B100BF2068006A41F21111084097
:102A900050B92068006A8910084028B92068406C45
:102AA00020F400402168486400BF00BF2068006A2D
:102AB00041F21111084050B92068006A891008409D
:102AC00028B92068006820F001002168086000BF74
:102AD000012084F83D00002030BD0000002C0140A2
:102AE0000034014001460A68B2F1804F15D1002040
:102AF00011E00F4A52F82020521C0D4B43F82020C1
:102B00001A4652F820200B4B9A4203D30022084B5E
:102B100043F82020401C1028EBDB074B0A689A4240
:102B200004D1064A1268521C044B1A607047000018
:102B3000D0020020F0490200002C01407800002063
:102B4000704770472DE9F047044620680568206803
:102B5000C668206847694FF00008C14605F00F08B5
:102B6000B8F1000F0AD105F0200038B106F02000BE
:102B700020B1204601F017FEBDE8F087B8F1000F44
:102B80006DD007F0010018B906F49070002866D0E7
:102B900005F0010030B106F4807018B1E06B40F030
:102BA0000100E06305F0040030B107F0010018B146
:102BB000E06B40F00200E06305F0020030B107F086
:102BC000010018B1E06B40F00400E06305F008007C
:102BD00030B107F0010018B1E06B40F00800E0638D
:102BE000E06B68B305F0200028B106F0200010B1BA
:102BF000204601F0D8FD20684069C0F38019E06BE1
:102C000000F0080010B9B9F1000F22D0204601F001
:102C1000AAFD2068406900F04000B0B1206840691A
:102C200020F0400021684861606B50B11748616B2B
:102C30004863606BFEF78CFC10B1606B416B88479A
:102C40000CE02046FFF77DFF08E02046FFF779FF04
:102C500004E02046FFF775FF0020E0638CE705F0F5
:102C6000800030B106F0800018B1204601F0BEFEB1
:102C700082E705F0400030B106F0400018B1204670
:102C800001F081FD78E700BF76E7000053470008B8
:102C900010B504460CB9012010BDA06900B100E0D8
:102CA00000BF94F8390028B9002084F83800204685
:102CB00000F028F8242084F839002068C06820F447
:102CC00000502168C860204601F0C0FD20680069FE
:102CD00020F49040216808612068406920F02A00B3
:102CE000216848612068C06840F400502168C860CD
:102CF0000020E063202084F8390084F83A000020A6
:102D0000CAE7000010B586B0044600200290039088
:102D1000049005906F49206888422FD100BF6E480B
:102D2000C06940F400206C49C8610846C06900F4DD
:102D30000020019000BF00BF00BF0846806940F03E
:102D4000100088610846806900F01000019000BF03
:102D500000BF08150290022003900320059002A9ED
:102D60005E48FEF7C9FC4FF400600290002003901B
:102D7000049002A95948FEF7BFFCA9E05849206811
:102D8000884237D100BF5448806940F4804052499E
:102D900088610846806900F48040019000BF00BF50
:102DA00000BF0846806940F00400886108468069D9
:102DB00000F00400019000BF00BF481502900220FF
:102DC00003900320059002A94648FEF795FC4FF4B6
:102DD0008060029000200390049002A94148FEF711
:102DE0008BFC002211462520FEF7CCFE2520FEF7A5
:102DF000B9FE6DE03C492068884236D100BF3648B4
:102E0000C06940F400303449C8610846C06900F424
:102E10000030019000BF00BF00BF0846806940F04D
:102E2000040088610846806900F00400019000BF3A
:102E300000BF04200290022003900320059002A905
:102E40002848FEF759FC08200290002003900490C7
:102E500002A92448FEF750FC002211462620FEF766
:102E600091FE2620FEF77EFE32E02049206888424F
:102E70002ED100BF1848C06940F480201649C861AF
:102E80000846C06900F48020019000BF00BF00BF69
:102E90000846806940F0080088610846806900F0B3
:102EA0000800019000BF00BF0815029002200390A7
:102EB0000320059002A90E48FEF71EFC4FF40060A7
:102EC000029000200390049002A90948FEF714FC28
:102ED00006B010BD004C0040001002400010014040
:102EE0000038014000080140004400400048004014
:102EF000000C014010B5034693F83A0020282FD16A
:102F000001B10AB9012010BD00BF93F838000128B3
:102F100001D10220F7E7012083F8380000BF996251
:102F20009A85DA850020D863222083F83A0000BF12
:102F3000002083F8380000BF1868C06840F4807033
:102F40001C68E0601868406940F001001C6860611E
:102F50001868C06840F020001C68E0600020D2E7DC
:102F60000220D0E710B50446FA49206888427CD197
:102F7000F94890F80001FF2809DB0020F64981F8A4
:102F80000001FF21F448401CFDF7F5F84AE2F34840
:102F90000078022804D0042813D00C287ED137E012
:102FA000ED48007861280BD10320EC49087000201F
:102FB000E94981F80001FF21E748401CFDF7DBF8F3
:102FC0002FE2E5490A7891F80001411CE24B83F8B1
:102FD0000011591C0A54481E90F80001032816DB02
:102FE000481E40782B2812D1481E80784F280ED1D9
:102FF000481EC0784B280AD10520D8490870002007
:10300000194681F80001FF21581CFDF7B4F808E2C9
:10301000D1490A7891F80001411CCF4B83F8001187
:10302000591C0A54481E90F80001001F085C2C2807
:103030001CD1481E90F80001C01E085C302815D134
:10304000481E90F800214FF6FF73C54800F038FA8B
:103050000920C24908700020BF4981F80001FF2102
:10306000BD48401CFDF787F861E0E0E1BA4890F800
:103070000001801FB849491C085C2C2818D1481E43
:1030800090F800214FF6FF73B54800F019FA0020C0
:10309000B14981F80001FF21AF4800E048E0401C41
:1030A000FDF769F8AD480078401CAC4908703EE077
:1030B000A94890F80001401FA749491C085C2C282A
:1030C00016D1481E90F800214FF6FF73A44800F077
:1030D000F7F90020A04981F80001FF219E48401C1B
:1030E000FDF749F89D480078401C9C4908701EE097
:1030F000994890F80001001F9749491C085C2C284A
:1031000015D1481E90F800214FF6FF73944800F047
:10311000D7F90020904981F80001FF218E48401C1A
:10312000FDF729F88D480078401C8C49087078E13B
:103130008A48007813287DDB87490A7891F80001D6
:10314000411C854B83F80011591C0A54481E90F805
:1031500000010A2839DB481E4078FF2846D1814803
:1031600001781846C078814240D17E48417818469F
:10317000007981423AD17B48817818464079814272
:1031800034D17848C1781846807981422ED10A21FD
:10319000581C00F027FE012818D100206E4981F844
:1031A000020181F8000101F20310491C0A68026063
:1031B0004A68426009890181FF21A0F58170FCF70E
:1031C000DAFF0120644981F8010129E10020624908
:1031D00081F8000181F80201FF215F48401CFCF7E3
:1031E000CAFF00205C4981F8010119E15E480078BE
:1031F0005949497888424CD15B4841785648807893
:10320000814246D1574801785348C078814240D125
:10321000544841785048007981423AD151488178E8
:103220004D484079814234D14E48C1784A4880792E
:10323000814200E03DE02CD14748C079052828D1E3
:103240004548007A062824D105204849087048A03E
:1032500002F0FEFC00204B4908704B480078012822
:1032600007D14A48007820B947480078401C4649B1
:1032700008700020384981F8000181F80201FF211F
:103280003548401CFCF777FF0020334981F80101E5
:10329000C6E00020304981F8000181F80201FF21D9
:1032A0002D48401CFCF767FF00202B4981F80101E5
:1032B000B6E029490A7891F80001411C264B83F8B1
:1032C0000011591C0A54481E90F80001401E085C69
:1032D0000A2871D1481E90F80001801E085C0D2854
:1032E0006AD1481E90F80001C01E085C4B2863D1CB
:1032F000481E90F80001001F085C4F285CD1481E52
:1033000090F800214FF6FF73154800F0D9F81348E4
:10331000007812280ED14EF660201D4908621DA0CB
:1033200002F096FC01202149887000202049087095
:10333000204908700020084981F80001FF21064853
:10334000401CFCF718FF05480078401C0349087032
:1033500066E031E000380140940000203200002097
:10336000000400205A0000204F00002064000020CC
:10337000CAD5B5BDD0C4CCF8BBD8B8B4A1A30D0A8A
:103380000000000065000020300000203100002017
:10339000D002002057494649204154C3FCC1EEC524
:1033A000E4D6C3B3C9B9A6A1A30D0A002C0000201E
:1033B000610000205E0000203A4890F80001401EA5
:1033C0003849491C085C0A282AD1481E90F8000197
:1033D000801E085C0D2823D1481E90F80001801F34
:1033E000085C52281CD1481E90F80001C01F085CE0
:1033F000522815D1481E90F800214FF6FF732A4835
:1034000000F05EF80020274981F80001FF212548DF
:10341000401CFCF7B0FE25480078401C234908708A
:1034200000BF00BF01221F492148FFF763FD21496A
:103430002068884234D1204890F8000107280DDB2D
:1034400000201D4981F800010A7891F80001411C13
:10345000194B83F80011591C0A541CE016490A78CC
:1034600091F80001411C144B83F80011591C0A54B7
:10347000481E90F8000107280DDB481E90F8001147
:10348000401C00F0AFFC012805D10B4981F8010177
:10349000002081F80001012207490848FFF72AFDB2
:1034A00010BD000094000020000400203200002025
:1034B0004004002000440040AB01002080040020B4
:1034C0002DE9F84304460D4616461F464FF0000905
:1034D00094F8390020285CD105B116B90120BDE867
:1034E000F88300BF94F83800012801D10220F6E7E4
:1034F000012084F8380000BF0020E063212084F818
:103500003900FEF7A7FA8146A684E6842BE0E08C1A
:10351000401EE084A068B0F5805F16D14B460022C3
:1035200080212046009701F095FA08B10320D6E7E4
:10353000A846B8F80000C0F3080021684860206978
:1035400008B9AD1C0FE06D1C0DE04B460022802138
:103550002046009701F07EFA08B10320BFE715F876
:10356000010B21684860E08C0028D0D14B46002236
:1035700040212046009701F06DFA08B10320AEE724
:10358000202084F8390000BF002084F8380000BFF4
:10359000A5E70220A3E7704710B520216E48FEF78B
:1035A0004BFA90B96D48807801280ED102206B4902
:1035B000887000206A4948616AA002F049FB012234
:1035C00004217148FEF740FAC5E06448807802287B
:1035D000FAD16348406942F210718842F4D9002060
:1035E0005F49486102216948FEF726FA002824D184
:1035F00001216648FEF720FAF8B920215648FEF767
:103600001BFAD0B955480078B8B9012204215E48A8
:10361000FEF71AFA03205149887001205C490870AE
:1036200000204F49C8625B48007820F004005949E7
:10363000087059A002F00CFB6AE002215348FEF723
:10364000FBF9012805D001215048FEF7F5F90128C2
:1036500017D142480078012813D120213E48FEF7B7
:10366000EBF970B9012204214748FEF7EDF9032078
:103670003A49887005204649087054A002F0E8FADB
:1036800046E036480078012820D101213F48FEF766
:10369000D3F9D8B902213D48FEF7CEF9B0B957A009
:1036A00002F0D6FA01202D49887000202C4948618B
:1036B00001203749087000202949C8623548007840
:1036C00020F00200801C3349087021E02348007874
:1036D000F0B901212D48FEF7AFF9012805D00221EC
:1036E0002A48FEF7A9F9012812D14CA002F0B0FA3D
:1036F00001201A498870264908700020184948613D
:10370000C8622448007820F00200801C214908701B
:103710001248007802281ED101211C48FEF78CF9BE
:10372000012805D002211948FEF786F9012812D197
:10373000FF204449087001201549087000200849FD
:10374000C8621448007820F00400001D1149087078
:103750003DA002F07DFA10BD000801402C000020C1
:10376000D0020020C3C5B9D8B1D5A3ACD1D3CAB15A
:10377000313053BCCCD0F8C5D0B6CFA3ACB5C8B4AB
:10378000FDA1A30D0A00000000140140001001403B
:10379000660000205E000020C3C5B9D8B1D5A3AC37
:1037A000C7D2CEDEB3E8CEEFA3ACB5C8B4FDBDD36F
:1037B000CAD5D6B8C1EEA1A2B4FDBBFABBF2D7D42C
:1037C000B6AFC7E5CFB4A1A30D0A0000C3C5B9D8F1
:1037D000B1D5A3ACC7D2D3D0B6AFCEEFA3ACBFAAFE
:1037E000C6F4B9A4D7F7A3ACB5C8B4FDBDD3CAD548
:1037F000D6B8C1EEA1A30D0A00000000CEB4BCEC07
:10380000B2E2B5BDB3E8CEEFA1A3C7EBB7C5C8EB35
:10381000B3E8CEEFA1A30D0A00000000BFD5CFD0C2
:10382000CAB1A3ACBCECB2E2B3E8CEEFCFE4D3D0E4
:10383000B3E8CEEFA3ACB7A2CBCDB1A8BEAFA1A3E6
:103840000D0A000076000020C7BFD6C6C7E5CFB47A
:10385000B9FDB3CCD6D0BCECB2E2B5BDD3D0B3E8A1
:10386000CEEFA3ACB7A2CBCDB1A8BEAFA1A30D0A3A
:103870000000000000BFFEE710B51B48006A4EF6CE
:10388000602188422ED91948007812282ADB0020AE
:10389000154908621648007816498870144840781F
:1038A000C8701348807808711148C0784871124870
:1038B0000078887111480078C8710A210D4800F01D
:1038C000BBFA01280ED14FF6FF730A2209490C48B2
:1038D000FFF7F6FD0BA002F0BBF90D480078401C85
:1038E0000B49087010BD0000D002002032000020FB
:1038F0005A0000203B000020590000205E000020FC
:1039000040040020D0C4CCF8A1A30D0A00000000A0
:103910006500002010B50446012C02D0032C18D1FC
:1039200012E00F48C06A40F2DC51884207D3002100
:103930000C48FFF793F805200B49087003E00021BD
:103940000848FFF75FF809E000210648FFF75AF83A
:1039500004E000210348FFF781F800BF00BF10BD5D
:10396000D0020020C0030020660000200EB5002019
:1039700000900190029012481249086000211148FD
:103980008160017301754FF40021C16100200D4970
:10399000486001210B480161FDF7F2FC08B1FDF719
:1039A000FFFB042000900120019005200290694651
:1039B0000448FDF735FC08B1FDF7F2FB0EBD000031
:1039C000002401401003002000B585B000200190C4
:1039D00002900390049000BF6448806940F020008A
:1039E000624988610846806900F02000009000BFAD
:1039F00000BF00BF0846806940F01000886108469B
:103A0000806900F01000009000BF00BF00BF0846B2
:103A1000806940F0040088610846806900F0040075
:103A2000009000BF00BF00BF0846806940F008005A
:103A300088610846806900F00800009000BF00BF60
:103A4000012241F2C3114A48FDF7FEFF01224FF463
:103A5000B8714848FDF7F8FF012245F211014648C8
:103A6000FDF7F2FF012204214448FDF7EDFF00229B
:103A70004FF460714048FDF7E7FF41F28720019065
:103A800000200290039001A93A48FDF735FEC320BB
:103A9000019011200290002003900320049001A9BE
:103AA0003348FDF729FE4FF4026001900020029098
:103AB000039001A92E48FDF71FFE30200190112030
:103AC0000290002003900320049001A92948FDF7EB
:103AD00013FE45F291000190012002900020039016
:103AE0000320049001A92448FDF706FE4AF22A00AB
:103AF000019000200290039001A91F48FDF7FCFDF2
:103B00004FF4A07001900120029000200390032048
:103B1000049001A91748FDF7EFFD4FF4885001907C
:103B200001200290002003900320049001A9104876
:103B3000FDF7E2FD04200190012002900020039097
:103B40000320049001A90D48FDF7D6FD4FF4407005
:103B5000019011200290002003900320049001A9FD
:103B60000548FDF7C9FD05B000BD0000001002408A
:103B70000008014000100140000C01400014014009
:103B800000B587B000200390049005900690019046
:103B900002901548154908604720486000211348E5
:103BA00081604FF49671C1600021016141618161C2
:103BB000FEF780FC08B1FDF7F3FA4FF48050039054
:103BC00003A90A48FEF7FFFC08B1FDF7E9FA002057
:103BD0000190029001A90548FEF742FC08B1FDF7EB
:103BE000DFFA07B000BD0000002C014040030020B8
:103BF00000B587B0002003900490059006900190D6
:103C000002904FF08040144908604720486000212E
:103C10001148816040F2E731C1600021016181619A
:103C2000FEF748FC08B1FDF7BBFA4FF48050039053
:103C300003A90948FEF7C7FC08B1FDF7B1FA002057
:103C40000190029001A90448FEF70AFC08B1FDF7B3
:103C5000A7FA07B000BD00008003002000B58DB0BA
:103C6000002009900A900B900C90079008901C215E
:103C70006846FCF780FA20482049086047204860E1
:103C800000211E4881604FF49671C16000210161DE
:103C90008161FEF70FFC08B1FDF782FA4FF4805006
:103CA000099009A91548FEF78EFC08B1FDF778FACE
:103CB0001248FEF78AFE08B1FDF772FA002007905D
:103CC000089007A90D48FEF7CBFB08B1FDF768FA8D
:103CD0006020009032200190002002900490002289
:103CE00069460648FEF7EDFD08B1FDF759FA0348AD
:103CF000FEF7BAFD0DB000BD00080040C003002073
:103D000010B50B480B4908604FF4E13048600021C2
:103D100008488160C16001610C214161002181611D
:103D2000C161FEF7B5FF08B1FDF73AFA10BD00001A
:103D3000004C00400004002010B50B480B490860FF
:103D40004FF4E1304860002108488160C1600161A2
:103D50000C21416100218161C161FEF799FF08B129
:103D6000FDF71EFA10BD000000380140400400209D
:103D700010B50B480B4908604FF4165048600021FD
:103D800008488160C16001610C21416100218161AD
:103D9000C161FEF77DFF08B1FDF702FA10BD00001A
:103DA000004400408004002010B50B480B49086017
:103DB0004FF4E1304860002108488160C160016132
:103DC0000C21416100218161C161FEF761FF08B1F1
:103DD000FDF7E6F910BD000000480040C0040020D7
:103DE00000BFFEE770B502460B464FF6FF71002498
:103DF00012E0105D414000250AE001F0010020B111
:103E000049084AF20100414000E04908681CC5B277
:103E1000082DF2DB601CC4B2981EA042E9DC105CE5
:103E2000CEB2B04206D1581E105CB0EB112F01D1BA
:103E3000012070BD0020FCE770B502460B464FF62E
:103E4000FF71002412E0105D414000250AE001F0FE
:103E5000010020B149084AF20100414000E0490850
:103E6000681CC5B2082DF2DB601CC4B2981EA042CB
:103E7000E9DC1154C1F30726581E1654012070BD09
:103E80007047000010B52F48806A41F27071884277
:103E90000DD92D480078122809DB002029498862B5
:103EA0004FF6FF73082229492948FFF709FB2948E3
:103EB00090F80101012812D10020264981F8010162
:103EC00008464179007901EB00200A2190FBF1F0CE
:103ED00021490880FF211F48401CFCF74CF91E486F
:103EE000008846282CDB1D480078401C1B490870C0
:103EF00008460078022823DB002008701848007864
:103F00001849887016484078C8701548807808713C
:103F10001348C0784871002088710F480078C87134
:103F20000A211048FFF788FF012809D14FF6FF73D7
:103F30000A220C490C48FFF7C3FA0CA001F088FED6
:103F4000002010BDD00200203200002033000020ED
:103F500080040020AB010020740000205F000020DE
:103F60005A0000204500002040040020D4EBC9F98D
:103F7000B1A8BEAFA1A30D0A0000000010B500203B
:103F80000C494863002210210B48FDF75DFD4FF4FA
:103F90007A70FDF7CBF8012210210748FDF754FD98
:103FA000C820FDF7C3F8002204210448FDF74CFDAA
:103FB00010BD0000D0020020000C014000140140A0
:103FC0007047000008B508490968C9084FF47A72BB
:103FD000B1FBF2F14143009100BF00BF00994A1EBE
:103FE00000920029F9D108BD8C00002010B50020F6
:103FF00001F014FF5D4908600846006818B10846E2
:104000000068FF2803D100205949087015E057487F
:104010000068012802D1564908700EE05348006834
:1040200002280AD15249087052A001F011FEFF2067
:104030004F4988700020594988614D48007818B967
:1040400057A001F005FE0EE049480078012803D191
:1040500058A001F0FDFD06E045480078022802D195
:1040600059A001F0F5FD20215D48FDF7E5FC08B3FE
:104070005C480078F0B901205B4908705949087024
:10408000002204215948FDF7DFFC4FF4FA70FDF7D8
:104090004DF857A001F0DCFD08215A48FDF7CCFC93
:1040A00020B90121584880F8141103E00021564836
:1040B00080F81411022001F0B1FE012812D05348FB
:1040C000007802280ED0022001F0A8FE0446214606
:1040D0004FA001F0BDFD13205A49087000205A4935
:1040E000087014E04948007802280DD057A001F06C
:1040F000AFFD1320534908700120534908704DF259
:10410000D8602649086202E057A001F0A1FD3548B9
:104110000078012829D13D48007830B3584800780C
:104120005849887056484078C8705548807808715A
:104130005348C0784871032088710120C8710A2152
:104140005048FFF779FE01280FD14FF6FF730A227E
:104150004C494D48FFF7B4F94CA001F079FD01201E
:104160002149087000200D49C86210BD7000002070
:104170002C000020BFAACABCC7BFD6C6C7E5CFB4B3
:10418000A3ACB2BDD6E831A3ACD1D3CAB138C3EB2E
:10419000C5D0B6CFA1A30D0A00000000D0020020B8
:1041A000C9E8B1B8D4DABFD5CFD0C4A3CABDA1A3E2
:1041B0000D0A0000C9E8B1B8D4DAB9A4D7F7D6D04F
:1041C000A1A30D0A00000000C9E8B1B8D4DAC7BF46
:1041D000D6C6C7E5CFB4C4A3CABDA1A30D0A0000CB
:1041E000000801406000002066000020001401402B
:1041F000C3C5D4DABFAAC6F4D7B4CCACA1A30D0A08
:1042000000000000000C014094000020310000205C
:104210005749464920C4A3BFE9B5DAD2BBB4CEC6DC
:10422000F4B6AFA3ACCEB4C5E4D6C3A3ACBDF8C856
:10423000EBC5E4D6C3C4A3CABDA3A12025640D0A5F
:10424000000000003200002030000020574946499D
:1042500020C1ACBDD3D6D0A3ACB5C8B4FDD0C4CCBE
:10426000F8A1A30D0A0000004154C3FCC1EEC5E44F
:10427000D6C377696669BFAACABCA1A30D0A0000AC
:104280005A0000204500002040040020CEB4B7A210
:10429000CBCDD6B8C1EECAB1A3ACC3C5BFAAC6F4D4
:1042A000B1A8BEAFA1A30D0A000000007047000036
:1042B000012080F3138800BF00BF00BF00BF00BF14
:1042C00000BFBFF34F8F00BF00BF00BF09480068A9
:1042D00000F4E06008490843001D0649086000BF7B
:1042E00000BF00BFBFF34F8F00BF00BF00BF00BFC4
:1042F00000BFFDE70CED00E00000FA0530B5014617
:10430000481EB0F1807F01D3012030BD481E4FF020
:10431000E022506150170F22002804DB13071C0E07
:10432000094B1C5406E013071D0E084B00F00F0448
:10433000241F1D5500BF00204FF0E0229061072090
:1043400010610020E1E7000000E400E018ED00E06B
:1043500010B5FDF797FB10BD00B595B028210BA84F
:10436000FBF709FF142106A8FBF705FF1821684693
:10437000FBF701FF01200B9000040C9000200D9032
:1043800001200F9002201290C10313914FF4E0110D
:1043900014910BA8FDF716FE08B1FCF701FF0F20E2
:1043A000069002200790002008904FF4806009904A
:1043B00000200A90022106A8FDF7CEFC08B1FCF708
:1043C000EFFE02200090800302906846FDF72CFC6F
:1043D00008B1FCF7E5FE15B000BD0000114800680B
:1043E00040F001000F490860084640680E49084047
:1043F0000C494860084600680C49084009490860B3
:104400000846006820F4802008600846406820F4D0
:10441000FE0048604FF41F008860C803044908602C
:1044200070470000001002400000FFF8FFFFF6FE9A
:1044300008ED00E010B50248FEF74AF910BD000093
:104440004003002010B50248FEF742F910BD0000FD
:104450008003002010B50248FEF73AF910BD0000B5
:10446000C003002010B50268204B98420ED0204BAC
:1044700098420BD0B0F1804F08D01E4B984205D027
:104480001D4B984202D01D4B984203D122F070027E
:104490004B681A43154B98420ED0154B98420BD0DF
:1044A000B0F1804F08D0134B984205D0124B984280
:1044B00002D0124B984203D122F44072CB681A43C7
:1044C00022F080034C6943EA040202608B68C362F5
:1044D0000B688362054B984202D0054B984201D18C
:1044E0000B6903630123436110BD0000002C0140F0
:1044F000003401400004004000080040000C00406F
:1045000030B501F01F05012404FA05F3046A9C4349
:104510000462046A01F01F0502FA05F52C430462E7
:1045200030BD30B50C46816821F47F4142EA032555
:1045300025432943816030BD0A46816821F070011E
:1045400042F00703194381607047000030B5056AE7
:1045500025F001050562026A4368846924F070044D
:1045600024F003040D682C4322F002028D682A43D4
:10457000104DA84200D103E00F4DA84206D100BF64
:1045800022F00802CD682A4322F00402094DA84215
:1045900002D0094DA84207D123F4807323F400739D
:1045A0004D692B438D692B43436084614D6845639E
:1045B000026230BD002C01400034014030B5056A74
:1045C00025F010050562026A4368846924F4E0441A
:1045D00024F440740D6844EA052422F020028D681A
:1045E00042EA0512124DA84200D103E0114DA84243
:1045F00007D100BF22F08002CD6842EA051222F006
:1046000040020B4DA84202D00A4DA84209D123F422
:10461000806323F400634D6943EA85038D6943EAAF
:104620008503436084614D688563026230BD00008C
:10463000002C01400034014030B5056A25F4807536
:104640000562026A4368C46924F0700424F003041C
:104650000D682C4322F400728D6842EA0522124D47
:10466000A84200D103E0114DA84207D100BF22F4B7
:104670000062CD6842EA052222F480620A4DA84217
:1046800002D00A4DA84209D123F4805323F40053E9
:104690004D6943EA05138D6943EA05134360C4611C
:1046A0004D68C563026230BD002C014000340140FA
:1046B00030B5056A25F480550562036A4468C2690D
:1046C00022F4E04222F440720D6842EA052223F40B
:1046D00000538D6843EA0533084DA84202D0084DC7
:1046E000A84204D124F480444D6944EA851444600E
:1046F000C2614D680564036230BD0000002C0140BA
:104700000034014030B50B461446026A056A25F0B4
:1047100001050562816921F0F00141EA041122F0EE
:104720000A021A438161026230BD30B50B4614465D
:10473000056A25F0100505628169026A21F470415D
:1047400041EA043122F0A00242EA031281610262CE
:1047500030BD70B505466C6A0020E085E0842046D7
:10476000FEF7EFF970BD0168C96821F49071026825
:10477000D1600168496921F001010268516120217D
:1047800080F83A10704710B504462068C06820F0E1
:1047900040002168C860202084F839002046FEF7D8
:1047A000FAFE002010BD70B5044694F83A002228A5
:1047B0004AD1A068B0F5805F13D1A56A206940B9DD
:1047C00020684068C0F308002880A06A801CA062AE
:1047D00019E020684068C0B22880A06A401CA0622E
:1047E00011E0206938B920684068C1B2A26A501C43
:1047F000A062117007E02068406800F07F01A26AA3
:10480000501CA0621170E08D401E80B2E085C8B9D6
:104810002068C06820F020002168C8602068C06857
:1048200020F480702168C8602068406920F0010091
:1048300021684861202084F83A002046FEF792FB68
:10484000002070BD0020FCE70220FAE770B50446A6
:104850002168096921F44051E2681143226811611D
:104860002269A1681143626941EA02052168C968A9
:1048700041F20C62914329432268D1602168496961
:1048800021F44071A269114322685161564A21689E
:10489000914254D1FDF73CFB00EBC00101EB00114C
:1048A00062689200B1FBF2F100EBC00202EB001271
:1048B00063689B00B2FBF3F26423B2FBF3F202EBFA
:1048C000C20303EB0212A1EB8201322202EB0111BF
:1048D0006422B1FBF2F101F0F00100EBC00202EB47
:1048E000001263689B00B2FBF3F26423B2FBF3F2A5
:1048F00001EB021200EBC00101EB001163689B00A9
:10490000B1FBF3F100EBC00303EB00136668B600E4
:10491000B3FBF6F36426B3FBF6F303EBC30606EB37
:104920000313A1EB8301322303EB01116423B1FBD9
:10493000F3F101F00F0111442268916053E0FDF79B
:10494000D7FA00EBC00101EB001162689200B1FBE5
:10495000F2F100EBC00202EB001263689B00B2FBB5
:10496000F3F26423B2FBF3F202EBC20303EB021295
:10497000A1EB8201322202EB01116422B1FBF2F1C0
:1049800001F0F00100EBC00202EB001263689B0033
:10499000B2FBF3F26423B2FBF3F201EB021200EB81
:1049A000C00101EB001163689B00B1FBF3F100EB68
:1049B000C00303EB00136668B600B3FBF6F364268E
:1049C000B3FBF6F303EBC30606EB0313A1EB830182
:1049D000322303EB01116423B1FBF3F101F00F016A
:1049E00011442268916070BD00380140014691F881
:1049F000390021282CD18868B0F5805F0FD10A6A70
:104A00001088C0F308000B685860086918B9086A74
:104A1000801C086209E0086A401C086205E00B6A15
:104A2000581C086218780B685860C88C401E80B209
:104A3000C88458B90868C06820F080000B68D86046
:104A40000868C06840F040000B68D86000207047DC
:104A50000220FCE72DE9F04104460D461746984632
:104A6000069E21E0701CF8B12EB1FCF7F3FFA0EB1D
:104A70000800B04218D92068C06820F4D0702168BE
:104A8000C8602068406920F001002168486120204A
:104A900084F8390084F83A0000BF002084F8380018
:104AA00000BF0320BDE8F081206800682840A842CC
:104AB00001D1012000E00020B842D3D00020F1E76E
:104AC00010B50248FEF73EF810BD0000400400207B
:104AD00010B50248FEF736F810BD00008004002033
:104AE00010B5F94890F80101012840F093870020A3
:104AF000F54981F80101F5480078022841D10846BE
:104B000090F8090110283CD0F1480078C0F38000EB
:104B1000002836D101F203100021016041600181BB
:104B2000AA20E94981F80D01AA21E74880F80E1171
:104B3000E8480178E44880F80F11E6484178E248F7
:104B400080F81011E3488178DF4880F81111E148BE
:104B5000C178DD4880F81211112180F813110A2163
:104B600000F20D10FFF768F9012809D14FF6FF7325
:104B70000A22D949D948FEF7A3FCD9A001F068F868
:104B800010BDD14890F8090115286FD2DFE810F068
:104B90006E0015004D00A20023018C02040378036F
:104BA000CD036E003B0494055A04CE06D806EA06EF
:104BB0008E066E00F206FC060607C34890F80A014E
:104BC00001282DD10220D04908702021CF48FCF7C0
:104BD00033FFF0B9CEA001F03BF8FFF7CFF9202169
:104BE000CA48FCF729FF012804D10121B64880F802
:104BF000141115E0CBA001F02BF8B548007820F097
:104C00000100401CB24908700021AF4880F814111F
:104C100006E0C7A001F01CF80221AB4880F814118F
:104C20000121A94880F8131129E3A74890F80A0147
:104C300001282CD1C3A001F00BF80821C748FCF7CC
:104C4000FBFEE0B900220421C548FCF7FDFE4FF44D
:104C5000FA70FCF76BFA0821C048FCF7EDFE01285A
:104C600005D10121984880F814112EE0FEE3BDA083
:104C700000F0EEFF0021944880F8141125E0BDA05B
:104C800000F0E6FF0221904880F814111DE0BFA05B
:104C900000F0DEFF01220421B148FCF7D5FE4FF4FD
:104CA000FA70FCF743FA0821AC48FCF7C5FE01286E
:104CB00007D1BCA000F0CCFF0121834880F814117B
:104CC00003E00021804880F8141102217E4880F81A
:104CD0001311A9E77C4890F80A01012847D1B6A032
:104CE00000F0B6FF4FF48051BB48FCF7A5FE78BB3F
:104CF00000224FF480518548FCF7A6FE4FF4FA706D
:104D0000FCF714FA4FF48051B348FCF795FE0128E4
:104D10000FD1B24908700020B14988636C4800780F
:104D200020F010006A4908700121674880F81411CA
:104D30004CE0ACA000F08CFF6548007820F010003B
:104D400010306349087000215F4880F814113DE07D
:104D5000FFE7A8A000F07CFF5D48007820F010007D
:104D60005B4908700221584880F814112EE0A7A072
:104D700000F06EFF012211036448FCF765FE4FF45A
:104D8000FA70FCF7D3F94FF480519348FCF754FEC6
:104D900001280ED1A3A000F05BFF4D48007820F061
:104DA000100010304A4908700121474880F814115A
:104DB0000CE090A000F04CFF4548007820F0100077
:104DC000434908700021404880F8141103213E48EF
:104DD00080F8131128E73C4890F80A01012842D1D5
:104DE00095A000F035FF4FF400614848FCF724FE21
:104DF00080BB00224FF480714448FCF725FE4FF43D
:104E0000FA70FCF793F94FF400614048FCF714FE88
:104E1000012810D100207249486102206F490870B2
:104E20002B48007820F020002949087001212648ED
:104E300080F8141143E087A000F00AFF24480078AE
:104E400020F0200020302249087000211E4880F800
:104E5000141134E0FFE783A000F0FAFE02211A48A3
:104E600080F814112BE085A000F0F2FE012211025F
:104E70002648FCF7E9FD4FF4FA70FCF757F94FF4B8
:104E800000612248FCF7D8FD01280ED181A000F076
:104E9000DFFE0F48007820F0200020300C49087019
:104EA0000121094880F8141109E00948007820F030
:104EB0002000074908700021034880F814110421DC
:104EC000014880F81311AFE6940000202C00002068
:104ED0005E0000205A000020A101002040040020B4
:104EE000BEDCBEF8B2D9D7F7A3ACD4DAC7BFD6C6FA
:104EF000CFFBB6BEB9FDB3CCD6D0A3ACBBD8B8B44B
:104F0000A1A30D0A0000000060000020000801407D
:104F1000CAD5B5BDBFAAC3C5D6B8C1EEA1A30D0AF7
:104F200000000000C3C5B9CAD5CFA1A30D0A000077
:104F3000C3C5D4DAB4F2BFAAD7B4CCACA1A30D0ACE
:104F400000000000CAD5B5BDBFAAB9F1C3C5B5C63A
:104F5000D6B8C1EEA1A30D0A00000000000C01406C
:104F600000140140B9F1C3C5B5C6B9CAD5CFA1A3D4
:104F70000D0A0000B9F1C3C5B5C6D2D1D4DAB4F276
:104F8000BFAAD7B4CCACA1A30D0A0000CAD5B5BD49
:104F9000B9D8B9F1C3C5B5C6D6B8C1EEA1A30D0A3B
:104FA00000000000B9D8B9F1C3C5B5C6B9CAD5CF9C
:104FB000A1A30D0A00000000CAD5B5BDBFAACEB995
:104FC000CBAEB7A7D6B8C1EEA3ACCEB9CBAE313518
:104FD000C3EBA1A30D0A00000010014063000020F4
:104FE000D0020020CEB9CBAEB7A7B9CAD5CFA1A306
:104FF0000D0A0000CEB9CBAEB7A7D4DAB4F2BFAA7F
:10500000D7B4CCACA1A30D0A00000000CAD5B5BD31
:10501000B9D8CEB9CBAEB7A7D6B8C1EEA1A30D0A09
:1050200000000000B9D8CEB9CBAEB7A7B9CAD5CF6A
:10503000A1A30D0A00000000CAD5B5BDBFAACEB914
:10504000CAB3B7A7D6B8C1EEA3AC3130C3EBA1A3A6
:105050000D0A0000CEB9CAB3B7A7B9CAD5CFA1A36C
:105060000D0A0000CEB9CAB3B7A7D4DAB4F2BFAA0A
:10507000D7B4CCACA1A30D0A00000000CAD5B5BDC1
:10508000B9D8CEB9CAB3B7A7D6B8C1EEA1A30D0A95
:1050900000000000B9D8CEB9CAB3B7A7B9CAD5CFF6
:1050A000A1A30D0A00000000F74890F80A010128AA
:1050B00041D1F6A000F0CCFD4FF40071F948FCF7A7
:1050C000BBFC50BB00224FF48071F648FCF7BCFCDF
:1050D0004FF47A70FCF72AF84FF40071F148FCF7AE
:1050E000ABFC01280AD1F048007820F04000EE49DE
:1050F00008700121E44880F8141148E0EBA000F0AA
:10510000A7FDE948007820F040004030E6490870EB
:105110000021DD4880F8141139E0E8A000F098FD86
:10512000E148007820F04000DF4908700221D648AD
:1051300080F814112BE0E7A000F08AFD0122110293
:10514000D848FCF781FC4FF4FA70FBF7EFFF4FF4FF
:105150000071D448FCF770FC01280ED1E3A000F0E8
:1051600077FD0121C84880F81411CF48007820F05D
:1051700040004030CC49087009E0CB48007820F06E
:105180004000C94908700021BF4880F8141105216A
:10519000BD4880F8131147E5BB4890F80A01012883
:1051A0003ED1D7A000F054FD8021BE48FCF744FC5E
:1051B00040BB00224021BB48FCF746FC4FF4FA708C
:1051C000FBF7B4FF8021B748FCF736FC01280AD171
:1051D000B548007820F08000B34908700121AA4842
:1051E00080F8141147E0CCA000F032FDAE48007802
:1051F00020F080008030AC4908700021A24880F87F
:10520000141138E0C8A000F023FDA748007820F072
:105210008000A549087002219B4880F814112AE0FB
:10522000C7A000F015FD012240219E48FCF70CFCB0
:105230004FF4FA70FBF77AFF80219A48FCF7FCFBE9
:1052400001280ED1C4A000F003FD9748007820F09B
:10525000800080309449087001218B4880F8141137
:1052600009E09148007820F080008F490870002103
:10527000854880F814110621834880F8131194E3BF
:10528000814890F80A0101282BD1B8A000F0E0FC79
:105290004FF40041BB48FCF7CFFBE8B900224FF4C4
:1052A0008041B848FCF7D0FB4FF47A70FBF73EFF23
:1052B0004FF40041B348FCF7BFFB012804D10121A2
:1052C000714880F814112BE0AFA000F0C1FC002160
:1052D0006D4880F8141123E002216B4880F8141106
:1052E0001EE0ADA000F0B4FC01229103A548FCF73C
:1052F000ABFB4FF4FA70FBF719FF4FF40041A148E4
:10530000FCF79AFB012807D1A9A000F0A1FC01211C
:105310005D4880F8141103E000215B4880F8141107
:105320000721594880F813113FE3574890F80A01C4
:1053300001283BD1A3A000F08BFC4FF40051914811
:10534000FCF77AFB68BB02218E48FCF775FB40BB7B
:1053500000224FF480518B48FCF776FB002201219C
:105360008848FCF771FB4FF4FA70FBF7DFFE4FF44F
:1053700000518448FCF760FB01280AD102218148D2
:10538000FCF75AFB012804D101213F4880F8141191
:1053900034E092A000F05CFC00213B4880F814113E
:1053A0002CE00221384880F8141127E08FA000F08B
:1053B0004FFC012211037348FCF746FB0122114602
:1053C0007048FCF741FB4FF4FA70FBF7AFFE4FF467
:1053D00000516C48FCF730FB48B902216948FCF7E2
:1053E0002BFB20B90021284880F8141106E080A08A
:1053F00000F02EFC0121244880F8141108212248D5
:1054000080F81311D1E2204890F80A01012808D150
:105410007CA000F01DFC012280215A48FCF714FBFF
:1054200007E07FA000F014FC002280215548FCF723
:105430000BFB154890F80A1180F814110A2180F826
:105440001311B2E2104890F80A0101281AD17BA08A
:1054500000F0FEFB00208049886102207F4908702F
:105460007FA000F0F5FBFF207C4900E098E2887007
:1054700008460178002000F029FD0121024880F84B
:10548000141114E100E1000094000020CAD5B5BD5C
:10549000BFAAD3EACBA2C6F7D6B8C1EEA1A30D0A24
:1054A00000000000001001405E000020D3EACBA203
:1054B000C6F7B9CAD5CFA1A30D0A0000D3EACBA283
:1054C000C6F7D4DAB4F2BFAAD7B4CCACA1A30D0A04
:1054D00000000000CAD5B5BDB9D8D3EACBA2C6F743
:1054E000D6B8C1EEA1A30D0A00000000B9D8D3EAD6
:1054F000CBA2C6F7B9CAD5CFA1A30D0A0000000000
:10550000CAD5B5BDBFAAC7E5CFB4B1C3D6B8C1EE41
:10551000A1A30D0A00000000C7E5CFB4B1C3B9CA0A
:10552000D5CFA1A30D0A0000C7E5CFB4B1C3D4DA2B
:10553000B4F2BFAAD7B4CCACA1A30D0A00000000FE
:10554000CAD5B5BDB9D8C7E5CFB4B1C3D6B8C1EED9
:10555000A1A30D0A00000000B9D8C7E5CFB4B1C3BC
:10556000B9CAD5CFA1A30D0A00000000CAD5B5BDA8
:10557000BFAAB4B5B7E7BBFAD6B8C1EEA1A30D0A6E
:1055800000000000000C0140B4B5B7E7BBFAB9CA8F
:10559000D5CFA1A30D0A0000CAD5B5BDB9D8B4B501
:1055A000B7E7BBFAD6B8C1EEA1A30D0A0000000010
:1055B000B9D8B4B5B7E7BBFAB9CAD5CFA1A30D0A1C
:1055C00000000000CAD5B5BDBFAABBBBC6F8C9C89C
:1055D000D6B8C1EEA1A30D0A00000000BBBBC6F8FF
:1055E000C9C8B9CAD5CFA1A30D0A0000CAD5B5BD97
:1055F000B9D8BBBBC6F8C9C8D6B8C1EEA1A30D0ABD
:1056000000000000BDD3CAD5B5BDB4F2BFAACFFB20
:10561000B6BEB5C6D6B8C1EEA1A30D0A0000000003
:10562000BDD3CAD5B5BDB9D8B1D5CFFBB6BEB5C609
:10563000D6B8C1EEA1A30D0A00000000BDD3CAD5A3
:10564000B5BDB4F2BFAAC7BFD6C6CFFBB6BED6B8EB
:10565000C1EEA1A30D0A0000D00200202C00002002
:10566000BFAACABCC7BFD6C6C7E5CFB4A3ACB2BD3C
:10567000D6E831A3ACD1D3CAB13230C3EBC5D0B672
:10568000CFA1A30D0A000000E44890F8140170B9FE
:10569000E3A000F0DDFA0020E84908700846017830
:1056A000002000F013FC0021DC4880F814110B21CD
:1056B000DA4880F8131178E1E0480078022807D131
:1056C000FF21D64880F81411DDA000F0C1FAE8E00F
:1056D000D24890F80A01012878D1D84800780128EA
:1056E00007D1EE21CD4880F81411D9A000F0B0FA0E
:1056F000D7E00220DA490870DAA000F0A9FA4FF4E6
:105700000051DC48FCF798F920B10221D948FCF798
:1057100093F950B900224FF48051D648FCF794F920
:1057200000220121D348FCF78FF92021D248FCF751
:1057300083F990BBFEF722FC2021CF48FCF77CF9CF
:10574000012813D0CD48007820F00100401CCB493F
:1057500008700020B949087008460178002000F060
:10576000B5FB0021AD4880F814119AE0C4A000F008
:105770006FFA0120B14908708870C048007820F0A5
:105780000100BE490870AD480178002000F09EFB82
:105790000121A24880F8141183E0FFE7C1A000F0C6
:1057A00057FA0120A54908708870B448007820F0A5
:1057B0000100B2490870A1480178002000F086FB82
:1057C0000221964880F814116BE0FFE7934890F8A7
:1057D0001401002865D1BEA000F03AFA0320A049C8
:1057E00008704FF40051A348FCF726F9012805D0B2
:1057F0000221A048FCF720F9012809D10122110358
:105800009C48FCF721F9012211469A48FCF71CF943
:1058100020219948FCF710F990BBFEF7AFFB20213F
:105820009548FCF709F901280ED09448007820F03B
:105830000100401C91490870012080490870002136
:10584000764880F814112CE08C48007820F0010094
:105850008A490870022079490870084601780020BA
:1058600000F034FB01216D4880F814119CA000F079
:10587000EFF90020A4498861FF207049887010E08A
:10588000FFE702206D49087095A000F0E1F90020C3
:105890009D498861FF206949887002215F4880F82E
:1058A00014110A215D4880F813117EE097A000F0E2
:1058B000CFF920217048FCF7BFF830BBFEF75EFB44
:1058C00020216D48FCF7B8F801280BD06B48007810
:1058D00020F00100401C6949087000214F4880F801
:1058E00014111EE00020554908706448007820F02B
:1058F0000100624908700121484880F814114F489E
:105900000178002000F0E2FA0BE000204B4908701B
:1059100008460178002000F0D9FA02213F4880F8BB
:10592000141110213D4880F813113EE00D213B4831
:1059300080F8131179480178384880F8141134E060
:105940000E21364880F8131101217548FCF774F8D0
:10595000044602217248FCF76FF804432F4880F890
:10596000144122E012212D4880F81311002180F803
:1059700014111AE00021084600F0A8FA4FF47A70DA
:10598000FBF7D4FBFEF794FC0021022000F09EFA06
:105990004FF47A70FBF7CAFBFEF78AFCFEF788FC2F
:1059A000FF211E4880F8131100BF00BF5D48002191
:1059B000016041600181AA20184981F80D01AA21E6
:1059C000164880F80E1158480178144880F80F11D5
:1059D00055484178114880F81011534881780F4894
:1059E00080F811115048C1780C4880F812110A2132
:1059F00000F20D10FEF720FA01280BD14FF6FF73CD
:105A00000A2248490A314948FDF75AFDAFF61430D9
:105A100000F01EF900BFFFF7B3B8000094000020AB
:105A2000BDD3CAD5B5BDB9D8B1D5C7BFD6C6CFFBD2
:105A3000B6BED6B8C1EEA1A30D0A00002C0000200E
:105A4000D4DACFFBB6BED6D0A1A30D08000000006B
:105A5000D4DAB9A4D7F7D6D0A1A30D08000000006E
:105A600060000020BFAAC6F4B9A4D7F7A1A30D0A0D
:105A700000000000000C0140000801405E00002012
:105A8000C3C5D2D1BFAAA3ACB5C8B4FDB7C5C8EBD6
:105A9000B3E8CEEFA3ACD1D3CAB13335C3EBA1A3E6
:105AA0000D0A0000C3C5D2BBD6B1D4DABFAAD7B4A1
:105AB000CCACA3ACB5C8B4FDB7C5C8EBB3E8CEEF6A
:105AC000A3ACD1D3CAB13335C3EBA1A30D0A0000F7
:105AD000CDA3D6B9B9A4D7F7A1A30D0A0000000041
