:020000040800F2
:100000001009002045010008B53F0008A939000883
:10001000153F0008090D0008895D00080000000078
:100020000000000000000000000000001D44000867
:10003000C11200080000000031410008C14400085E
:100040005F0100085F0100085F0100085F01000810
:100050005F0100085F0100085F0100085F01000800
:100060005F0100085F0100085F0100085F010008F0
:100070005F0100085F0100085F0100085F010008E0
:100080005F0100085F0100085F0100085F010008D0
:100090005F0100085F0100085F0100085F010008C0
:1000A0005F010008A54500085F0100085F01000826
:1000B000B54500085F010008C54500085F0100085C
:1000C0005F0100085F0100085F0100085F01000890
:1000D0005F010008314C0008414C00085F01000836
:1000E0005F0100085F0100085F0100085F01000870
:1000F0005F0100085F0100085F0100085F01000860
:100100005F0100085F0100085F0100085F0100084F
:100110005F0100085F0100085F0100085F0100083F
:100120005F0100085F0100085F0100085F0100082F
:10013000DFF80CD000F048F8004800475963000889
:10014000100900200648804706480047FEE7FEE702
:10015000FEE7FEE7FEE7FEE7FEE7FEE7FEE7FEE777
:100160004D45000831010008D2B201E000F8012B32
:10017000491EFBD270470022F6E710B513460A4627
:1001800004461946FFF7F0FF204610BD421C10F848
:10019000011B0029FBD1801A704730B50B46014680
:1001A00000202022012409E021FA02F59D4205D316
:1001B00003FA02F5491B04FA02F52844151EA2F1C0
:1001C0000102F1DC30BD0000064C074D06E0E0689E
:1001D00040F0010394E8070098471034AC42F6D38E
:1001E000FFF7AAFF306600085066000870B50446A5
:1001F00000252068806800F00100F0B12068806868
:1002000020F001002168886001F0F0FC05460EE056
:1002100001F0ECFC401B022809D9A06A40F0100054
:10022000A062E06A40F00100E062012070BD206839
:10023000806800F001000028EAD10020F6E7000005
:1002400010B5F348007802283ED1F2480078002823
:100250003AD1F148806944F62061884234D32021A4
:10026000EE4801F0B5FC48B90121ED4801F0B0FCC1
:1002700020B90221EA4801F0ABFCA0B10020E64918
:100280008861C8620120E7490870FF20E049887052
:10029000E5A005F009FEF248007820F00400001DFA
:1002A000EF49087010E0DB480078401CD94908701D
:1002B0000320D7498870EA48007820F00400E84914
:1002C0000870E84805F0F0FD2021D44801F080FCDA
:1002D000002869D10121D24801F07AFC002863D1BD
:1002E0000221CF4801F074FC00285DD1C848807815
:1002F000032859D1C6480078022855D10420C449A2
:100300008870C4480078401CC24908700020C24967
:100310008864D5A005F0C8FD4FF48051C04801F0B5
:1003200057FC90BB00224FF48051BC4801F058FCB0
:100330004FF4FA7000F0C6FF4FF48051B84801F056
:1003400047FC01280DD10020B3498863C4480078D8
:1003500020F00800C24908700121CF4880F814112C
:10036000E5E3CEA005F0A0FDBD48007820F0080030
:100370000830BB49087001221103A84801F030FC85
:100380000021C54880F81411D1E3FFE7C7A005F0AC
:100390008BFDB348007820F00800B14908700221B5
:1003A000BD4880F81411C2E39948807804286FD1C1
:1003B0009948806C47F23051884269D3C1A005F05A
:1003C00073FDC7A005F070FD01221103934801F0F1
:1003D00007FC4FF4FA7000F075FF4FF4805190481D
:1003E00001F0F6FB01280ED1C7A005F05DFD9C4889
:1003F000007820F008000830994908700121A648CB
:1004000080F814110CE0C5A005F04EFD944800786A
:1004100020F008009249087000219F4880F81411CC
:10042000052080490870C2480078401CC049087007
:1004300078480078401C7749087075488078401CDF
:100440007349887000207449486288610022402105
:10045000734801F0C5FB00224FF48071704801F031
:10046000BFFBB4A005F020FD4FF47A7000F02AFF26
:1004700080216B4801F0ACFB01280AD1BCA005F03B
:1004800013FD7748007820F04000754908700FE0B0
:100490002FE0C1A005F008FD7148007820F0400071
:1004A00040306F490870012240215D4801F098FBFF
:1004B0004FF400715A4801F08BFB012809D1C0A00C
:1004C00005F0F2FC6648007820F0200064490870CE
:1004D0002DE36348007820F0200020306049087048
:1004E000C2A005F0E1FC012211024D4801F078FBA9
:1004F0001DE38F48007801283AD14748406A47F207
:100500003051884234D3C4A005F0CEFCCAA005F017
:10051000CBFC87480078401C8549087001221102F5
:100520003F4801F05DFB4FF4FA7000F0CBFED2A023
:1005300005F0BAFC4FF40071394801F049FB48B9A5
:10054000D7A005F0B1FC4648007820F020004449CF
:10055000087009E0DDA005F0A7FC4148007820F014
:10056000200020303E49087000202B494861DEE21F
:100570006F480078022836D12748406942F210714E
:10058000884230D3DCA005F08FFCE3A005F08CFCA2
:1005900067480078401C66490870012240212048C5
:1005A00001F01EFBE8A005F07FFC4FF4FA7000F0AC
:1005B00089FE80211A4801F00BFB48B9EBA005F039
:1005C00073FC2748007820F0400025490870AEE20F
:1005D000F0A005F069FC2248007820F0400040308F
:1005E0001F490870A3E25248007803280ED1F3A0F7
:1005F00005F05AFC4E480078401C4D490870002216
:100600004FF48041F54801F0EBFAE9E11CE200000B
:100610002C0000207A000020D402002000080140B5
:10062000001001406B000020BFAACABCC7BFD6C6DD
:10063000C7E5CFB4B9FDB3CCD6D0A3ACC3C5CEB457
:10064000B9D8BBF2BCECB2E2B5BDD3D0B3E8CEEFC3
:10065000A3ACB1A8BEAFCCE1CABEA1A30D0A0000F5
:100660005E00002028650008BFAACABCC7BFD6C666
:10067000C7E5CFB4B9FDB3CCD6D0A3ACBFAACEB931
:10068000CBAEB7A72E20B4F2BFAACAB1BCE43330B8
:10069000C3EBA1A30D0A000098000020CEB9CBAE99
:1006A000B7A7B9CAD5CFA1A30D0A0000CEB9CBAE6A
:1006B000B7A7D4DAB4F2BFAAD7B4CCACA1A30D0AC1
:1006C00000000000BFAACABCC7BFD6C6C7E5CFB4EA
:1006D000A3ACB2BDD6E8B6FEA1A30D0A000000008F
:1006E000BFAACABCC7BFD6C6C7E5CFB4B9FDB3CC95
:1006F000D6D0A3ACB9D8CEB9CBAEB7A7D6B8C1EED9
:10070000A1A30D0A00000000B9D8CEB9CBAEB7A79F
:10071000B9CAD5CFA1A30D0A00000000CEB9CBAE57
:10072000B7A7D4DAB9D8D7B4CCACA1A30D0A0000CE
:100730007B000020BFAACABCC7BFD6C6C7E5CFB4DE
:10074000B9FDB3CCD6D0A3ACB4F2BFAAC7E5CFB441
:10075000B1C3BACDD3EACBA2B5E3BBF7A3ACB4F235
:10076000BFAACAB1BCE43330C3EBA1A30D0A000099
:10077000BFAACABCC7BFD6C6C7E5CFB4B9FDB3CC04
:10078000D6D0A3ACB4F2BFAAC7E5CFB4B1C3B3C946
:10079000B9A6A1A30D0A0000BFAACABCC7BFD6C68E
:1007A000C7E5CFB4B9FDB3CCD6D0A3ACB4F2BFAAE1
:1007B000C7E5CFB4B1C3CAA7B0DCA1A30D0A00003E
:1007C000BFAACABCC7BFD6C6C7E5CFB4B9FDB3CCB4
:1007D000D6D0A3ACB4F2BFAAD3EACBA2B5E7BBFA9A
:1007E000B3C9B9A6A1A30D0A00000000BFAACABCE4
:1007F000C7BFD6C6C7E5CFB4B9FDB3CCD6D0A3AC7E
:10080000B4F2BFAAD3EACBA2B5E7BBFACAA7B0DC61
:10081000A1A30D0A00000000BFAACABCC7BFD6C66C
:10082000C7E5CFB4B9FDB3CCD6D0A3ACB2BDD6E842
:10083000C8FDA1A30D0A0000BFAACABCC7BFD6C687
:10084000C7E5CFB4B9FDB3CCD6D0A3ACB5BD33307A
:10085000C3EBA3ACB9D8B1D5D3EACBA2B5E7BBFA09
:10086000A3ACC7E5CFB4B1C3D4DAB4F2BFAA7878E9
:10087000C3EBA1A30D0A0000BFAACABCC7BFD6C65E
:10088000C7E5CFB4B9FDB3CCD6D0A3ACB9D8B1D5F8
:10089000D3EACBA2B5E7BBFAA1A30D0A0000000082
:1008A000BFAACABCC7BFD6C6C7E5CFB4B9FDB3CCD3
:1008B000D6D0A3ACB9D8B1D5D3EACBA2B5E7BBFAB1
:1008C000B3C9B9A6A1A30D0A00000000BFAACABC03
:1008D000C7BFD6C6C7E5CFB4B9FDB3CCD6D0A3AC9D
:1008E000B9D8B1D5D3EACBA2B5E7BBFACAA7B0DC79
:1008F000A1A30D0A00000000BFAACABCC7BFD6C68C
:10090000C7E5CFB4B9FDB3CCD6D0A3ACB2BDD6E861
:10091000CBC40D0A00000000BFAACABCC7BFD6C620
:10092000C7E5CFB4B9FDB3CCD6D0A3ACB5BD343098
:10093000C3EBA3ACB9D8B1D5D3EACBA2C7E5CFB44A
:10094000B1C3A1A30D0A0000BFAACABCC7BFD6C6C7
:10095000C7E5CFB4B9FDB3CCD6D0A3ACB9D8B1D527
:10096000C7E5CFB4B1C3A1A30D0A0000BFAACABC9A
:10097000C7BFD6C6C7E5CFB4B9FDB3CCD6D0A3ACFC
:10098000B9D8B1D5C7E5CFB4B1C3B3C9B9A6A1A38E
:100990000D0A0000BFAACABCC7BFD6C6C7E5CFB400
:1009A000B9FDB3CCD6D0A3ACB9D8B1D5C7E5CFB4D7
:1009B000B1C3CAA7B0DCA1A30D0A0000BFAACABC7C
:1009C000C7BFD6C6C7E5CFB4B9FDB3CCD6D0A3ACAC
:1009D000B2BDD6E8CEE5A1A30D0A0000000C01408F
:1009E00054A005F061FA4FF47A7000F06BFC4FF4FC
:1009F00000415D4801F0ECF8012812D15B49087014
:100A000000205B4908705B4908705B4908645BA083
:100A100005F04AFA6348007820F0800061490870C8
:100A20000EE001229103504801F0DAF85EA005F0D3
:100A30003BFA5C48007820F080008030594908700B
:100A400000204D49086272E061480078042821D1F5
:100A50004648007802281DD15EA005F025FA5C48C2
:100A60000078401C5A49087062A005F01DFA002069
:100A70003E4908703E4908703E49087001228021B5
:100A8000394801F0ADF866A005F00EFA00203A49A9
:100A9000C8634CE04E480078052848D13648C06B02
:100AA0006D49884243D36DA005F0FEF90020484906
:100AB00008707249087072A005F0F6F900228021D2
:100AC000294801F08DF87BA005F0EEF9002084495B
:100AD000087008460178002005F024FB8148007862
:100AE000814988707F484078C8707E488078087156
:100AF0007C48C0784871042088710020C8710A21A0
:100B0000794803F033FA01280FD14FF6FF730A2218
:100B10007549764802F0A0FD75A005F0C5F90120E1
:100B20007849087000201449C862012010BD0020D7
:100B3000FCE70000BFAACABCC7BFD6C6C7E5CFB492
:100B4000B9FDB3CCD6D0A3ACB4F2BFAAB4B5B7E765
:100B5000BBFAA3ACB4F2BFAACAB1BCE43630C3EB53
:100B6000A1A30D0A00000000000C01406700002056
:100B70006900002068000020D4020020BFAACABC7F
:100B8000C7BFD6C6C7E5CFB4B9FDB3CCD6D0A3ACEA
:100B9000B4F2BFAAB4B5B7E7BBFAB3C9B9A6A1A36B
:100BA0000D0A00005E000020BFAACABCC7BFD6C69F
:100BB000C7E5CFB4B9FDB3CCD6D0A3ACB4F2BFAACD
:100BC000B4B5B7E7BBFACAA7B0DCA1A30D0A000011
:100BD0007B000020BFAACABCC7BFD6C6C7E5CFB43A
:100BE000B9FDB3CCD6D0A3ACB2BDD6E8C1F9A1A3B0
:100BF0000D0A0000BFAACABCC7BFD6C6C7E5CFB49E
:100C0000B9FDB3CCD6D0A3ACB5BD5858C3EBA3AC9B
:100C1000B9D8B1D5B4B5B7E7BBFAA1A30D0A0000A6
:100C2000BFAACABCC7BFD6C6C7E5CFB4B9FDB3CC4F
:100C3000D6D0A3ACB4F2BFAAD7CFCDE2CFDFCFFBE3
:100C4000B6BEB5C6A3ACB4F2BFAACAB1BCE43330D9
:100C500030C3EBA1A30D0A00E0930400BFAACABCF5
:100C6000C7BFD6C6C7E5CFB4B9FDB3CCD6D0A3AC09
:100C7000B2BDD6E8C6DFA1A30D0A00007A000020AD
:100C8000BFAACABCC7BFD6C6C7E5CFB4B9FDB3CCEF
:100C9000D6D0A3ACB5BD313230C3EBA3ACB9D8B11B
:100CA000D5D7CFCDE2CFDFCFFBB6BEB5C6A1A30D62
:100CB0000A000000BFAACABCC7BFD6C6C7E5CFB4EA
:100CC000B9FDB3CCD6D0A3ACB9D8B1D5D7CFCDE28E
:100CD000CFDFCFFBB6BEB5C6A1A30D0A0000000052
:100CE0002C0000205A000020450000205004002065
:100CF000D7D4B6AFC7E5CFB4CDEAB3C9A1A30D0A27
:100D0000000000006B00002000BFFEE710B52B487C
:100D10000078D0B92A480078B8B928480078401C33
:100D2000264908704FF47A7000F0CCFA00220121B5
:100D3000244800F055FF4FF4FA5000F0C3FA0122A6
:100D40001146204800F04CFF1AE01C4800780228A9
:100D500016D11A480078401C18490870012018491B
:100D600008700121022005F0DDF901201649887084
:100D70000020164908701649087016A005F094F86E
:100D80001E480078022809DB1D480078052805D197
:100D900000201B4908701BA005F086F81748007852
:100DA000032809DB05480078012805D006480078AB
:100DB000022801D003F034FB10BD000030000020F9
:100DC00031000020000801402C00002061000020BC
:100DD0005E00002057494649C4A3BFE9C5E4D6C315
:100DE0002FC1ACBDD3B3C9B9A621BFAACABCD5FD1A
:100DF000B3A3B9A4D7F72E0D0A00000066000020A7
:100E000065000020CEB4CAD5B5BDD0C4CCF8BBD8DF
:100E1000B8B4A3ACCDF8C2E7B6CFBFAAA1A30D0A60
:100E20000000000010B56F4800786F4908706F48E7
:100E30000078042803DD6D480078072803DB0420D0
:100E40006B49087012E06B48007818B102206849BD
:100E500008700BE063480078022803D1032064493E
:100E6000087003E05F4800786149087020216248FB
:100E700000F0AEFE614908700846007880B960480D
:100E8000007801280CD1012204215E4800F0A8FE60
:100E900000205B4908705C49087005205B490870B8
:100EA0005648007850BB56480078022803D0544872
:100EB0000078032822D101220421524800F090FE3C
:100EC0004FF4FA7000F0FEF90821514800F080FE5E
:100ED000012804D101214F4880F8141103E00021BA
:100EE0004C4880F814110020454908704A4948636D
:100EF0000520464908700020434908704648406B69
:100F000048F6B80188423DD93C480078012839D1DB
:100F100042480078002835D000203F4948634048C7
:100F20000078404988703E484078C8703C488078D6
:100F300008713B48C07848710220887132480078B7
:100F4000C87131480078401C2F4908700A21354883
:100F500003F00CF8012815D14FF6FF730A2231492E
:100F6000314802F079FB28480078C0EBC00000EB64
:100F700080012EA004F098FF012024490870002071
:100F80002549C86231480078012812D12248806B77
:100F900043F6982188420CD900201F4988632B49C9
:100FA000087001221103144800F01AFE28A004F072
:100FB0007BFF2B480078022812D11748406942F283
:100FC000107188420CD900201349486124490870E7
:100FD00001221102084800F003FE22A004F064FF81
:100FE00010BD00002C0000205900002065000020EA
:100FF0006C0000205E000020000801406E00002010
:101000006000002000140140620000206B000020FE
:10101000000C014098000020D40200203100002084
:101020005A0000204500002050040020B3A4CAB19B
:10103000BCE4C3C5BFAAC6F4B1A8BEAFA3ACD2D1AD
:101040002564C3EBA1A30D0A00000000630000208B
:10105000CDA3D6B9CEB9CBAEA1A30D0A0000000036
:1010600064000020CDA3D6B9CEB9CAB3A1A30D0A9E
:101070000000000010B58648007802287ED185481F
:101080000078122821D2DFE800F00921ED34ED4B81
:10109000ED62ED7AED91EDA8EDBFEDD67D480078DB
:1010A000401C7C490870002202217B4800F098FD1A
:1010B0004FF4FA7000F006F901220221764800F0A0
:1010C0008FFD4FF4FA6000F0FDF8CBE07148007836
:1010D000401C7049087071490868FFF757F884B2DE
:1010E0006E484FF6FF73224601686D4802F0B4FA6D
:1010F000B8E068480078401C664908704FF47A7080
:1011000000F0E0F865494868FFF740F884B26348AA
:101110004FF6FF7322464168614802F09DFAA1E054
:101120005C480078401C5B4908704FF4FA7000F08E
:10113000C9F85A498868FFF729F884B257484FF62A
:10114000FF7322468168564802F086FA8AE05148C9
:101150000078401C4F4908704FF4FA7000F0B2F864
:101160004E49C868FFF712F884B24C484FF6FF7337
:101170002246C1684A4802F06FFA73E086E04548AB
:101180000078401C434908704FF4FA7000F09AF858
:1011900042490869FEF7FAFF84B240484FF6FF73F0
:1011A000224601693E4802F057FA5BE03948007870
:1011B000401C384908704FF4FA7000F083F8374942
:1011C0008869FEF7E3FF84B234484FF6FF73224686
:1011D0008169334802F040FA44E02E480078401C10
:1011E0002C4908704FF4FA7000F06CF82B49C8696C
:1011F000FEF7CCFF84B229484FF6FF732246C1693F
:10120000274802F029FA2DE022480078401C2149A5
:1012100008704FF4FA7000F055F82049086AFEF79C
:10122000B5FF84B21D484FF6FF732246016A1C4881
:1012300002F012FA16E017480078401C15490870B1
:101240004FF4FA7000F03EF81449486AFEF79EFF2A
:1012500084B212484FF6FF732246416A104802F0EA
:10126000FBF900BF00BF0B48007812280EDA0D48CA
:10127000806944F62061884208D3002009498861CA
:1012800009A004F011FE002002490870002010BDE2
:10129000310000203200002000080140040000203E
:1012A00050040020D40200205553522D43333232D3
:1012B00020C5E4D6C3B2BBB3C9B9A6A1A30D0A0029
:1012C0007047000031B500F0D9FE4FF47A71B0FBE1
:1012D000F1F4204603F0CAF808B100BFFEE7064962
:1012E0000098086000BF044800680028FBD14FF058
:1012F000E0210861886138BD0000002031B500F0B0
:10130000BDFE0B49B0FBF1F4204603F0AFF808B185
:1013100000BFFEE707490098086000BF0548006865
:101320000028FBD14FF0E0210861886138BD000042
:1013300040420F00000000207047000010B500F090
:101340005BFC1649086000F05DFC1449486000F041
:101350005FFC12498860084600684008496800EB55
:1013600091000E49896800EBD1000D4908600846DC
:101370000068000E0B49087009480068000C4870AE
:1013800007480088000A887005480078C87004483B
:10139000016805A004F088FD10BD0000C80200200F
:1013A000700000205A000020C9E8B1B86964A3BAEF
:1013B00025640D0A0000000038B502460023002015
:1013C000009000BF92F82400012801D1022038BD0E
:1013D000012082F8240000BF4868072812D2106854
:1013E000406B0C79641E04EB84051F24AC40A043C1
:1013F0000D796D1E05EB85050C68AC402043146823
:10140000606327E048680D2812D21068006B0C79E1
:10141000E41F04EB84051F24AC40A0430D79ED1FAD
:1014200005EB85050C68AC4020431468206311E08F
:101430001068C06A0C790D3C04EB84051F24AC4095
:10144000A0430D790D3D05EB85050C68AC402043AC
:101450001468E06208680A2812D31068C0680C7823
:101460000A3C04EB44050724AC40A0430D780A3D38
:1014700005EB45058C68AC4020431468E0600FE044
:10148000106800690C7804EB44050724AC40A043C5
:101490000D7805EB45058C68AC402043146820614D
:1014A0000868102802D00868112827D1174C106846
:1014B000A0421ED11068806800F40000F0B91068E6
:1014C000806840F400001468A0600868102815D1F6
:1014D0000F4800680F4CB0FBF4F000EB80004000B8
:1014E000009002E00098401E009000980028F9D17A
:1014F00004E0906A40F020009062012300BF0020C9
:1015000082F8240000BF184661E700000024014073
:101510009000002040420F002DE9F04104460027D2
:1015200000250026A84614B90120BDE8F081A06876
:1015300010B1207D00B100BFA06A30B90020E06288
:1015400084F82400204600F097F82046FEF74EFE6F
:101550000746A06A00F01000002873D1002F7ED14A
:10156000A06A20F4885040F00200A0623F4AD4E90B
:101570000001904208D1E069B0F5402F02D14FF44C
:10158000002002E0E06900E0E0690143207B41EADD
:1015900040000643A068B0F5807F02D0A068012813
:1015A00002D14FF4807000E000200543207D012827
:1015B00011D1207B38B9A069401E4FF4006141EA87
:1015C0004030054307E0A06A40F02000A062E06AD6
:1015D00040F00100E0622068406820F46940284340
:1015E00021684860206880682149084030432168AC
:1015F0008860A068B0F5807F02D0A068012802D181
:101600004FF4807000E00020B0F5807F03D1208A85
:10161000401E4FEA00582068C06A20F4700040EA7B
:1016200008002168C8622068806812490840B042FA
:1016300009D10020E062A06A20F0020040F0010021
:10164000A06211E00BE0A06A20F0020040F0100060
:10165000A062E06A40F00100E062012704E0A06AB5
:1016600040F01000A062012738465EE7003C0140D0
:10167000FDF7E1FFFE0E1FFF10B586B00446002007
:10168000029003900490059014492068884222D16A
:1016900000BF1348806940F4007011498861084612
:1016A000806900F40070019000BF00BF00BF0846D1
:1016B000806940F0040088610846806900F00400F9
:1016C000019000BF00BF102002900320039002A9E8
:1016D000044800F0DDF806B010BD00000024014011
:1016E000001002400008014070B50446002594F83F
:1016F0002100022803D00420A0630125C1E0206856
:10170000006820F00E00216808602068006820F062
:101710000100216808605C492068884252D95A4912
:1017200078392068884201D1012047E05649643960
:101730002068884201D1102040E053495039206888
:10174000884201D1801539E04F493C3920688842F0
:1017500001D1801432E04C4928392068884202D1F6
:101760004FF480302AE0484914392068884202D179
:101770004FF4801022E044492068884201D140049F
:101780001CE042492068884201D1012016E03F490F
:1017900014312068884201D110200FE03B492831E4
:1017A0002068884201D1801508E038493C31206822
:1017B000884201D1801401E04FF480303349091F81
:1017C000086051E0304978392068884201D1012011
:1017D00047E02D4964392068884201D1102040E05B
:1017E000294950392068884201D1801539E02649BD
:1017F0003C392068884201D1801432E022492839DE
:101800002068884202D14FF480302AE01E49143902
:101810002068884202D14FF4801022E01A492068E3
:10182000884201D140041CE018492068884201D157
:10183000012016E0154914312068884201D110209A
:101840000FE0124928312068884201D1801508E054
:101850000E493C312068884201D1801401E04FF4E8
:101860008030094980394860012084F8210000BF98
:10187000002084F8200000BF606B10B12046616B2F
:101880008847284670BD00008000024008040240DE
:101890002DE9F847024600239C467BE14FF0010802
:1018A00008FA03F4D1F8008008EA0400A0427DD1D0
:1018B000DFF8F4A2D1F80480A8EB0A09D0453AD0A9
:1018C00014DCB8F1030F50D009DCB8F1000F31D0AF
:1018D000B8F1010F1CD0B8F1020F49D120E0B8F1E6
:1018E000110F18D0B8F1120F42D11EE0B9F5881FC0
:1018F00025D006DCB9F5803F20D0B9F5801F37D15F
:101900001AE0B9F5001F18D0B9F5041F30D117E05F
:10191000D1F80CC02DE0D1F80C8008F1040C28E0BF
:10192000D1F80C8008F1080C23E0D1F80C8008F104
:101930000C0C1EE000BF00BF00BF00BF00BF00BF17
:10194000D1F80880B8F1000F02D14FF0040C0BE081
:10195000D1F80880B8F1010F03D14FF0080C1461E1
:1019600002E04FF0080C546103E04FF0000C00E07F
:1019700000BF00BFFF2801D8904601E002F1040833
:101980004646FF2802D84FEA830803E0A3F108087F
:101990004FEA88084746D6F800804FF00F0909FA49
:1019A00007F928EA09080CFA07F900E07AE048EAA2
:1019B0000908C6F80080D1F8048008F08058B8F112
:1019C000805F6FD100BFDFF8E481D8F8188048F05D
:1019D0000108DFF8D891C9F81880C846D8F81880EF
:1019E00008F00108CDF8008000BF00BF4FEAB93809
:1019F0004FEA930958F829504FEA83784FEA18794B
:101A00004FF00F0808FA09F825EA0805DFF8A08169
:101A1000424502D14FF0000824E0DFF898814245AA
:101A200002D14FF001081DE0DFF88C81424502D160
:101A30004FF0020816E0DFF88481424502D14FF0F2
:101A400003080FE0DFF87881424502D14FF0040827
:101A500008E0DFF87081424502D14FF0050801E04F
:101A60004FF006084FEA83794FEA197908FA09F826
:101A700048EA0505DFF850814FEA930948F82950F4
:101A8000D1F8048008F48038B8F5803F0BD1DFF836
:101A90003C81D8F8008048EA0008DFF83091C9F8A6
:101AA00000800AE075E0DFF82481D8F8008028EA99
:101AB0000008DFF81891C9F80080D1F8048008F414
:101AC0000038B8F5003F0ED1DFF8008108F10408B6
:101AD000D8F8008048EA0008DFF8F09009F104091E
:101AE000C9F800800DE0DFF8E48008F10408D8F8B8
:101AF000008028EA0008DFF8D49009F10409C9F849
:101B00000080D1F8048008F48018B8F5801F0ED149
:101B1000DFF8B88008F10808D8F8008048EA000823
:101B2000DFF8A89009F10809C9F800800DE0DFF896
:101B30009C8008F10808D8F8008028EA0008DFF83F
:101B40008C9009F10809C9F80080D1F8048008F4E4
:101B50000018B8F5001F0ED1DFF8708008F10C08EE
:101B6000D8F8008048EA0008DFF8609009F10C0915
:101B7000C9F800800DE0DFF8548008F10C08D8F8AF
:101B8000008028EA0008DFF8449009F10C09C9F840
:101B900000805B1CD1F8008028FA03F8B8F1000F30
:101BA0007FF47CAEBDE8F887000011100010024001
:101BB00000080140000C01400010014000140140E9
:101BC00000180140001C01400800014000040140D1
:101BD000024693680B400BB1012000E000207047E3
:101BE0000AB1016101E00B0403617047014800681C
:101BF0007047000084000020014800687047000022
:101C0000E8F7FF1F0148006870470000ECF7FF1F6E
:101C10000148006870470000F0F7FF1F04480068A3
:101C200020B103480068401E014908607047000069
:101C30000000002010B50848006840F01000064978
:101C40000860032000F0A8F8002000F007F800F07A
:101C50002BF8002010BD00000020024070B50446A3
:101C60000E4800784FF47A71B1FBF0F00C49096826
:101C7000B1FBF0F5284600F0A3FC08B1012070BDCF
:101C8000102C07D200222146501E00F047F80548CC
:101C9000046001E00120F2E70020F0E78C00002062
:101CA000900000208800002008B500BF114880691E
:101CB00040F001000F4988610846806900F001008A
:101CC000009000BF00BF00BF0846C06940F08050D0
:101CD000C8610846C06900F08050009000BF00BF96
:101CE00000BF0549486820F0E06040F0007048609F
:101CF00000BF08BD00100240000001400146084638
:101D0000002809DB00F01F0301229A4043099B00D1
:101D100003F1E023C3F8002100BF70472DE9F05F15
:101D200080460D461646002704F0CEF80746394691
:101D30002A46334601F00700C0F1070ABAF1040F42
:101D400002D94FF0040A01E0C0F1070AD14600F1C0
:101D5000040ABAF1070F02D24FF0000A01E0A0F125
:101D6000030AD4464FF0010A0AFA09FAAAF1010A55
:101D70000AEA020A0AFA0CFA4FF0010B0BFA0CFB02
:101D8000ABF1010B0BEA030B4AEA0B042146404678
:101D900004F0A2F8BDE8F09F00BF00F00702064B78
:101DA00019684FF6FF031940044B0B4343EA022125
:101DB000014B196000BF70470CED00E00000FA0510
:101DC000F8B5044600260025207800F00100002820
:101DD0006BD000274348C06900F0805070B900BF45
:101DE0004048C06940F080503E49C8610846C0691B
:101DF00000F08050009000BF00BF01273A48006803
:101E000000F48070B0B93848006840F480703649FA
:101E10000860FFF7EBFE064606E0FFF7E7FE801BD3
:101E2000642801D90320F8BD2F48006800F48070B1
:101E30000028F2D02B48006A00F440752DB3A0882A
:101E400000F44070A84220D02648006A20F4407573
:101E5000012026490860002008602248056205F03C
:101E6000010090B1FFF7C2FE064608E0FFF7BEFE94
:101E7000801B41F28831884201D90320D3E71948F9
:101E8000006A00F002000028F0D01648006A20F432
:101E900040706168084313490862012F04D1084665
:101EA000C06920F08050C86100BF207800F00200B7
:101EB000022807D10B48406820F44040A16808433D
:101EC00008494860207800F01000102807D1054824
:101ED000406820F48000616908430249486000209E
:101EE000A1E70000001002400070004040044242A0
:101EF00070B504460D460CB9012070BD5A48006803
:101F000000F00700A8420ED25748006820F00700F2
:101F10002843554908600846006800F00700A842B9
:101F200001D00120E9E7207800F0020002281DD14D
:101F3000207800F00400042805D14C48406840F4A3
:101F4000E0604A494860207800F00800082805D180
:101F50004648406840F460504449486043484068FF
:101F600020F0F000A168084340494860207800F064
:101F7000010078B36068012806D13C48006800F48D
:101F8000003090B90120B8E76068022806D13748D0
:101F9000006800F0007040B90120AEE733480068E7
:101FA00000F0020008B90120A7E73048406820F09F
:101FB0000300616808432D494860FFF717FE064695
:101FC00009E0FFF713FE801B41F28831884202D9F5
:101FD000032092E707E02548406800F00C006168A4
:101FE000B0EB810FEDD12048006800F00700A84257
:101FF0000ED91D48006820F0070028431A490860E0
:102000000846006800F00700A84201D0012074E7EC
:10201000207800F00400042807D11448406820F418
:10202000E060E168084311494860207800F008004A
:10203000082808D10D48406820F46050216940EA22
:10204000C1000A49486000F03FF808494968C1F3F7
:102050000311074A515CC8400649086006480068F9
:10206000FFF7FCFD002048E700200240001002407E
:1020700010650008900000208800002001480068DA
:10208000704700009000002000B5FFF7F7FF0449FB
:102090004968C1F30221034A515CC84000BD0000F9
:1020A000001002402065000800B5FFF7E7FF044973
:1020B0004968C1F3C221034A515CC84000BD000019
:1020C0000010024020650008F0B585B00FF26C0CDE
:1020D0009CE8E01001A8A0E8E0101CA52D68009580
:1020E00000210022002300240020194D696801F01E
:1020F0000C05F5B1042D02D0082D19D101E01548C9
:1021000019E001ADC1F38346AC5D01F4803555B1F2
:102110000F4D6D68C5F340451DF805200D4D654315
:10212000B5FBF2F302E00C4D04FB05F3184602E0A8
:1021300000BF084800BF00BF05B0F0BD02030405A2
:10214000060708090A0B0C0D0E0F10100102000003
:102150000010024000127A0000093D00F8B5044664
:102160000CB90120F8BD207800F00100002878D0DB
:10217000F848406800F00C0004280CD0F54840688E
:1021800000F00C00082811D1F248406800F48030BB
:10219000B0F5803F0AD1EF48006800F40030002815
:1021A0005FD0606800285CD10120DBE700BF606879
:1021B000B0F5803F06D1E748006840F48030E5493B
:1021C000086028E0606858B9E248006820F4803070
:1021D000E04908600846006820F4802008601AE0A2
:1021E0006068B0F5A02F0BD1DA48006840F4802079
:1021F000D84908600846006840F4803008600AE06A
:10220000D448006820F48030D2490860084600684D
:1022100020F48020086000BF606888B1FFF7E6FC0A
:10222000054606E0FFF7E2FC401B642801D90320C5
:1022300098E7C848006800F400300028F2D010E0A9
:10224000FFF7D4FC054606E0FFF7D0FC401B6428EE
:1022500001D9032086E7BF48006800F40030002859
:10226000F2D1207800F00200022857D1B948406826
:1022700000F00C0050B1B748406800F00C0008288E
:1022800018D1B448406800F4803098B9B14800686B
:1022900000F0020020B12069012801D0012061E78F
:1022A000AC48006820F0F800616940EAC100A94923
:1022B000086033E02069E8B10120A7490860FFF712
:1022C00095FC054606E0FFF791FC401B022801D96A
:1022D000032047E79F48006800F002000028F2D082
:1022E0009C48006820F0F800616940EAC100994903
:1022F000086013E0002098490860FFF777FC054666
:1023000006E0FFF773FC401B022801D9032029E7F0
:102310009048006800F002000028F2D1207800F018
:10232000080008282DD1A069B8B101208B490860A8
:10233000FFF75CFC054606E0FFF758FC401B02284F
:1023400001D903200EE78348406A00F0020000280C
:10235000F2D0012001F0EEFE13E000207F4908607A
:10236000FFF744FC054606E0FFF740FC401B02284F
:1023700001D90320F6E67748406A00F00200002801
:10238000F2D1207800F00400042873D100277148AE
:10239000C06900F0805070B900BF6E48C06940F05D
:1023A00080506C49C8610846C06900F080500090B8
:1023B00000BF00BF01276A48006800F48070B0B910
:1023C0006748006840F4807065490860FFF70EFCBC
:1023D000054606E0FFF70AFC401B642801D90320EC
:1023E000C0E65F48006800F480700028F2D000BFAB
:1023F000E068012806D15748006A40F001005549BD
:10240000086227E0E06858B95248006A20F00100ED
:10241000504908620846006A20F00400086219E08A
:10242000E06805280BD14B48006A40F00400494998
:1024300008620846006A40F0010008620AE0454868
:10244000006A20F00100434908620846006A20F053
:102450000400086200BFE068A0B1FFF7C7FB0546B3
:1024600009E0FFF7C3FB401B41F28831884202D9E3
:10247000032077E622E03748006A00F002000028D7
:10248000EFD012E0FFF7B2FB054608E0FFF7AEFB26
:10249000401B41F28831884201D9032062E62D4871
:1024A000006A00F002000028F0D1012F05D1294870
:1024B000C06920F080502749C86100BFE069C8B3F7
:1024C0002448406800F00C00082860D0E069022829
:1024D00048D1002020490866FFF788FB054606E042
:1024E000FFF784FB401B022801D903203AE6194874
:1024F000006800F000700028F2D1206AB0F5803F3B
:1025000007D11448406820F40030A16808431149FD
:102510004860D4E9080108430E49496821F4741160
:1025200008430C49486001200B490866FFF75EFB31
:10253000054607E03DE0FFF759FB401B022801D9A3
:1025400003200FE60348006800F000700028F2D076
:102550002FE000000010024000004242800442428E
:1025600000700040002014490866FFF73FFB054655
:1025700006E0FFF73BFB401B022801D90320F1E5F1
:102580000E48006800F000700028F2D111E0E06908
:10259000012800D1E6E50948466806F48031206A42
:1025A000814204D106F47011606A814201D0012099
:1025B000D8E50020D6E500000000424200100240AD
:1025C00070B504462546681EB0F1807F01D3012016
:1025D0000FE0681E4FF0E02148610F214FF0FF30FF
:1025E00003F07AFC00204FF0E021886107200861A9
:1025F000002070BD7047704710B5024600BF92F8CA
:102600003C00012801D1022010BD012082F83C00CD
:1026100000BF022082F83D0010684368106884689B
:1026200023F070030868034324F0800448680443DF
:102630001068436010688460012082F83D0000BF8C
:10264000002082F83C0000BF00BFDDE710B5044663
:102650000CB9012010BD94F83D0028B9002084F881
:102660003C00204600F00CF8022084F83D00211DBB
:10267000206801F0AFFF012084F83D000020E9E769
:1026800038B5044628492068884216D100BF27483B
:10269000806940F40060254988610846806900F43B
:1026A0000060009000BF00BF002211461920FFF714
:1026B00035FB1920FFF722FB34E02068B0F1804F92
:1026C00016D100BF1948C06940F001001749C86120
:1026D0000846C06900F00100009000BF00BF002262
:1026E00011461C20FFF71AFB1C20FFF707FB19E01F
:1026F0000F492068884215D100BF0C48C06940F0DE
:1027000004000A49C8610846C06900F0040000904E
:1027100000BF00BF002211461E20FFF7FFFA1E2057
:10272000FFF7ECFA38BD0000002C01400010024019
:102730000008004001460868C06840F001000B68CE
:10274000D8600868806800F00702062A05D008688B
:10275000006840F001000B681860002070472DE908
:10276000F04104460D4600BF94F83C00012802D118
:102770000220BDE8F081012084F83C0000BF022067
:1027800084F83D002068866826F0770626F47F46A8
:10279000206886602868502833D00CDC202850D070
:1027A00004DC00284BD0102851D149E0302849D012
:1027B00040284CD139E060282DD0702807D0B0F5E2
:1027C000805F03D0B0F5005F41D10DE040E0D5E976
:1027D00002136A68206801F05CFF2068866846F092
:1027E00077062068866033E0D5E902136A682068BE
:1027F00001F04FFF2068806840F4804021688860C5
:1028000026E0EA686968206802F034F85021206800
:1028100001F04AFF1CE0EA686968206802F03DF8B0
:102820006021206801F040FF12E0EA6869682068D2
:1028300002F020F84021206801F036FF08E000BFD8
:1028400000BF00BF2968206801F02EFF00E000BF34
:1028500000BF012084F83D0000BF002084F83C0048
:1028600000BF00BF85E7704710B5044620680069C7
:10287000C0F34000D8B12068C068C0F34000B0B1D8
:102880006FF00200216808610120207720688069CC
:1028900000F0030018B12046FFF7E5FF05E02046F1
:1028A00000F0DAF8204600F077F900202077206861
:1028B0000069C0F38000D8B12068C068C0F3800010
:1028C000B0B16FF004002168086102202077206811
:1028D000806900F4407018B12046FFF7C4FF05E09E
:1028E000204600F0B9F8204600F056F90020207785
:1028F00020680069C0F3C000D8B12068C068C0F388
:10290000C000B0B16FF00800216808610420207792
:102910002068C06900F0030018B12046FFF7A3FF4C
:1029200005E0204600F098F8204600F035F9002038
:10293000207720680069C0F30010D8B12068C06813
:10294000C0F30010B0B16FF01000216808610820DA
:1029500020772068C06900F4407018B12046FFF766
:1029600082FF05E0204600F077F8204600F014F9D9
:10297000002020772068006900F0010058B120682D
:10298000C06800F0010030B16FF0010021680861FB
:10299000204600F073F920680069C0F3C01058B1F8
:1029A0002068C068C0F3C01030B16FF080002168AB
:1029B00008612046FFF71EFE20680069C0F3801002
:1029C00058B12068C068C0F3801030B16FF040008B
:1029D00021680861204600F07FF920680069C0F393
:1029E000401058B12068C068C0F3401030B16FF09B
:1029F0002000216808612046FFF7FDFD10BD0000A2
:102A000010B586B004460020029003900490059013
:102A10000E492068884216D100BF0D48806940F0F9
:102A200008000B4988610846806900F008000190A1
:102A300000BF00BF4020029002200390059002A931
:102A40000448FEF725FF06B010BD00000008004056
:102A500000100240000C0140704770B504460D465E
:102A6000164600BF94F83C00012801D1022070BD39
:102A7000012084F83C0000BF022084F83D0036B1FC
:102A8000042E1BD0082E31D00C2E5ED145E02946F5
:102A9000206801F013FE2068806940F0080021687A
:102AA00088612068806920F00400216888612068BE
:102AB0008069296908432168886147E029462068C0
:102AC00001F034FE2068806940F40060216888616C
:102AD0002068806920F480602168886120688069AE
:102AE000296940EA0120216888612FE02946206891
:102AF00001F05AFE2068C06940F008002168C861F2
:102B00002068C06920F004002168C8612068C0699D
:102B1000296908432168C86118E02946206801F046
:102B20007FFE2068C06940F400602168C8612068A9
:102B3000C06920F480602168C8612068C069296983
:102B400040EA01202168C86100E000BF00BF012009
:102B500084F83D0000BF002084F83C0000BF00BFA7
:102B600085E710B504460CB9012010BD94F83D006E
:102B700028B9002084F83C00204600F00CF8022020
:102B800084F83D00211D206801F024FD012084F817
:102B90003D000020E9E770477047000070B504462B
:102BA0000E4601223146206801F062FD0F4920687F
:102BB000884203D00E492068884201D1012000E0FC
:102BC000002028B12068406C40F40040216848642F
:102BD0002068806800F00705062D05D02068006891
:102BE00040F0010021680860002070BD002C014009
:102BF0000034014030B504460D46002229462068C5
:102C000001F036FD1B492068884203D01A4920682C
:102C1000884201D1012000E0002090B100BF20686F
:102C2000006A41F21111084050B92068006A891009
:102C3000084028B92068406C20F4004021684864AE
:102C400000BF00BF2068006A41F21111084050B96E
:102C50002068006A8910084028B92068006820F0C0
:102C600001002168086000BF012084F83D000020B9
:102C700030BD0000002C01400034014001460A68CC
:102C8000B2F1804F15D1002011E00F4A52F82020F8
:102C9000521C0D4B43F820201A4652F820200B4BB3
:102CA0009A4203D30022084B43F82020401C1328EB
:102CB000EBDB074B0A689A4204D1064A1268521CA1
:102CC000044B1A6070470000D40200203057050002
:102CD000002C01407C000020704770472DE9F04730
:102CE0000446206805682068C668206847694FF078
:102CF0000008C14605F00F08B8F1000F0AD105F031
:102D0000200038B106F0200020B1204601F003FE7B
:102D1000BDE8F087B8F1000F6DD007F0010018B9D9
:102D200006F49070002866D005F0010030B106F47A
:102D3000807018B1E06B40F00100E06305F0040022
:102D400030B107F0010018B1E06B40F00200E06321
:102D500005F0020030B107F0010018B1E06B40F05F
:102D60000400E06305F0080030B107F0010018B17D
:102D7000E06B40F00800E063E06B68B305F0200012
:102D800028B106F0200010B1204601F0C4FD2068F3
:102D90004069C0F38019E06B00F0080010B9B9F188
:102DA000000F22D0204601F096FD2068406900F017
:102DB0004000B0B12068406920F0400021684861BF
:102DC000606B50B11748616B4863606BFEF78CFC19
:102DD00010B1606B416B88470CE02046FFF77DFF28
:102DE00008E02046FFF779FF04E02046FFF775FF73
:102DF0000020E0638CE705F0800030B106F0800031
:102E000018B1204601F0AAFE82E705F0400030B17B
:102E100006F0400018B1204601F06DFD78E700BFD4
:102E200076E70000C348000810B504460CB901203D
:102E300010BDA06900B100E000BF94F8390028B9C6
:102E4000002084F83800204600F028F8242084F878
:102E500039002068C06820F400502168C86020460E
:102E600001F0ACFD2068006920F490402168086101
:102E70002068406920F02A00216848612068C06805
:102E800040F400502168C8600020E063202084F8EE
:102E9000390084F83A000020CAE7000010B586B077
:102EA0000446002002900390049005906F4920682A
:102EB00088422FD100BF6E48C06940F400206C49A1
:102EC000C8610846C06900F40020019000BF00BF3F
:102ED00000BF0846806940F010008861084680699C
:102EE00000F01000019000BF00BF08150290022002
:102EF00003900320059002A95E48FEF7C9FC4FF439
:102F00000060029000200390049002A95948FEF747
:102F1000BFFCA9E058492068884237D100BF544817
:102F2000806940F48040524988610846806900F415
:102F30008040019000BF00BF00BF0846806940F09C
:102F4000040088610846806900F00400019000BF19
:102F500000BF48150290022003900320059002A9AB
:102F60004648FEF795FC4FF48060029000200390E5
:102F7000049002A94148FEF78BFC0022114625204F
:102F8000FEF7CCFE2520FEF7B9FE6DE03C49206837
:102F9000884236D100BF3648C06940F40030344919
:102FA000C8610846C06900F40030019000BF00BF4E
:102FB00000BF0846806940F00400886108468069C7
:102FC00000F00400019000BF00BF04200290022026
:102FD00003900320059002A92848FEF759FC082019
:102FE000029000200390049002A92448FEF750FCB0
:102FF000002211462620FEF791FE2620FEF77EFED7
:1030000032E02049206888422ED100BF1848C069AC
:1030100040F480201649C8610846C06900F4802049
:10302000019000BF00BF00BF0846806940F0080063
:1030300088610846806900F00800019000BF00BF69
:1030400008150290022003900320059002A90E4863
:10305000FEF71EFC4FF400600290002003900490E5
:1030600002A90948FEF714FC06B010BD004C004050
:1030700000100240001001400038014000080140EB
:103080000044004000480040000C014010B50346D9
:1030900093F83A0020282FD101B10AB9012010BDC0
:1030A00000BF93F83800012801D10220F7E7012082
:1030B00083F8380000BF99629A85DA850020D863CA
:1030C000222083F83A0000BF002083F8380000BFB8
:1030D0001868C06840F480701C68E0601868406937
:1030E00040F001001C6860611868C06840F0200072
:1030F0001C68E0600020D2E70220D0E710B504464B
:10310000FA49206888427CD1F94890F80001FF28EC
:1031100009DB0020F64981F80001FF21F448401C3A
:10312000FDF729F84AE2F3480078022804D0042881
:1031300013D00C287ED137E0ED48007861280BD100
:103140000320EC4908700020E94981F80001FF21C3
:10315000E748401CFDF70FF82FE2E5490A7891F89F
:103160000001411CE24B83F80011591C0A54481E0F
:1031700090F80001032816DB481E40782B2812D156
:10318000481E80784F280ED1481EC0784B280AD19F
:103190000520D84908700020194681F80001FF2158
:1031A000581CFCF7E8FF08E2D1490A7891F80001C1
:1031B000411CCF4B83F80011591C0A54481E90F84B
:1031C0000001001F085C2C281CD1481E90F800014B
:1031D000C01E085C302815D1481E90F800214FF61B
:1031E000FF73C54800F038FA0920C2490870002072
:1031F000BF4981F80001FF21BD48401CFCF7BBFF1F
:1032000061E0E0E1BA4890F80001801FB849491C2C
:10321000085C2C2818D1481E90F800214FF6FF7347
:10322000B54800F019FA0020B14981F80001FF21EA
:10323000AF4800E048E0401CFCF79DFFAD48007837
:10324000401CAC4908703EE0A94890F80001401FBE
:10325000A749491C085C2C2816D1481E90F800216B
:103260004FF6FF73A44800F0F7F90020A04981F859
:103270000001FF219E48401CFCF77DFF9D4800781F
:10328000401C9C4908701EE0994890F80001001FFE
:103290009749491C085C2C2815D1481E90F800213C
:1032A0004FF6FF73944800F0D7F90020904981F859
:1032B0000001FF218E48401CFCF75DFF8D4800781F
:1032C000401C8C49087078E18A48007813287DDB1F
:1032D00087490A7891F80001411C854B83F8001159
:1032E000591C0A54481E90F800010A2839DB481E70
:1032F0004078FF2846D1814801781846C07881423D
:1033000040D17E4841781846007981423AD17B48C5
:10331000817818464079814234D17848C17818467E
:10332000807981422ED10A21581C00F0F5FD012838
:1033300018D100206E4981F8020181F8000101F2E4
:103340000310491C0A6802604A68426009890181C9
:10335000FF21A0F58170FCF70EFF0120644981F880
:10336000010129E10020624981F8000181F8020190
:10337000FF215F48401CFCF7FEFE00205C4981F8FD
:10338000010119E15E4800785949497888424CD1D9
:103390005B48417856488078814246D15748017849
:1033A0005348C078814240D1544841785048007910
:1033B00081423AD1514881784D484079814234D197
:1033C0004E48C1784A488079814200E03DE02CD1E6
:1033D0004748C079052828D14548007A062824D1D5
:1033E00005204849087048A002F05EFD00204B49C6
:1033F00008704B480078012807D14A48007820B966
:1034000047480078401C464908700020384981F838
:10341000000181F80201FF213548401CFCF7ABFE9A
:103420000020334981F80101C6E00020304981F8CD
:10343000000181F80201FF212D48401CFCF79BFE92
:1034400000202B4981F80101B6E029490A7891F85A
:103450000001411C264B83F80011591C0A54481ED8
:1034600090F80001401E085C0A2871D1481E90F8AF
:103470000001801E085C0D286AD1481E90F80001EA
:10348000C01E085C4B2863D1481E90F80001001F45
:10349000085C4F285CD1481E90F800214FF6FF735E
:1034A000154800F0D9F81348007812280ED14EF6CE
:1034B00060201D4908621DA002F0F6FC0120214990
:1034C00088700020204908702049087000200849B1
:1034D00081F80001FF210648401CFCF74CFE05481E
:1034E0000078401C0349087066E031E00038014074
:1034F0009800002032000020100400205A00002014
:103500004F00002065000020CAD5B5BDD0C4CCF85E
:10351000BBD8B8B4A1A30D0A0000000066000020CB
:103520003000002031000020D402002057494649D5
:10353000204154C3FCC1EEC5E4D6C3B3C9B9A6A1AA
:10354000A30D0A002C000020610000205E00002076
:103550003A4890F80001401E3849491C085C0A2886
:103560002AD1481E90F80001801E085C0D2823D146
:10357000481E90F80001801F085C52281CD1481E8C
:1035800090F80001C01F085C522815D1481E90F821
:1035900000214FF6FF732A4800F05EF8002027490B
:1035A00081F80001FF212548401CFCF7E4FD254877
:1035B0000078401C2349087000BF00BF01221F494A
:1035C0002148FFF763FD21492068884234D1204813
:1035D00090F8000107280DDB00201D4981F800014B
:1035E0000A7891F80001411C194B83F80011591C0D
:1035F0000A541CE016490A7891F80001411C144B4A
:1036000083F80011591C0A54481E90F8000107283D
:103610000DDB481E90F80011401C00F07DFC0128D5
:1036200005D10B4981F80101002081F80001012238
:1036300007490848FFF72AFD10BD00009800002048
:1036400010040020320000205004002000440040FC
:10365000AF010020900400202DE9F84304460D46F8
:1036600016461F464FF0000994F8390020285CD117
:1036700005B116B90120BDE8F88300BF94F8380001
:10368000012801D10220F6E7012084F8380000BFAC
:103690000020E063212084F83900FEF7A7FA814674
:1036A000A684E6842BE0E08C401EE084A068B0F5A0
:1036B000805F16D14B46002280212046009701F002
:1036C00081FA08B10320D6E7A846B8F80000C0F395
:1036D000080021684860206908B9AD1C0FE06D1C26
:1036E0000DE04B46002280212046009701F06AFA47
:1036F00008B10320BFE715F8010B21684860E08C92
:103700000028D0D14B46002240212046009701F0EE
:1037100059FA08B10320AEE7202084F8390000BF31
:10372000002084F8380000BFA5E70220A3E7704717
:1037300010B520216048FEF74BFAC8B95F48807881
:10374000012815D15E48007890B95C4800780228BD
:103750000ED002205949887000205A4948615AA069
:1037600002F0A2FB012204216048FEF739FAA1E031
:10377000524880780228FAD15248406942F21071CA
:103780008842F4D900204F49486102215848FEF789
:103790001FFA20BB01215648FEF71AFAF8B920217A
:1037A0004548FEF715FAD0B944480078B8B9012267
:1037B00004214E48FEF714FA032040498870012086
:1037C0004C49087000203F49C8624B48007820F0FF
:1037D00004004949087049A002F066FB6AE0022132
:1037E0004348FEF7F5F9012805D001214048FEF7CE
:1037F000EFF9012817D131480078012813D1202191
:103800002D48FEF7E5F970B9012204213748FEF78B
:10381000E7F903202949887005203649087044A03B
:1038200002F042FB46E025480078012820D1012122
:103830002F48FEF7CDF9D8B902212D48FEF7C8F977
:10384000B0B947A002F030FB01201C49887000206D
:103850001C49486101202749087000201949C862A5
:103860002548007820F00200801C2349087021E0E0
:1038700012480078F0B901211D48FEF7A9F9012886
:1038800005D002211A48FEF7A3F9012812D13CA065
:1038900002F00AFB012009498870164908700020CF
:1038A00008494861C8621448007820F00200801C72
:1038B0001149087010BD0000000801402C000020D4
:1038C0007A000020D4020020C3C5B9D8B1D5A3AC7A
:1038D000D1D3CAB1313053BCCCD0F8C5D0B6CFA308
:1038E000ACB5C8B4FDA1A30D0A000000001401404E
:1038F000001001406B0000205E000020C3C5B9D855
:10390000B1D5A3ACC7D2CEDEB3E8CEEFA3ACB5C879
:10391000B4FDBDD3CAD5D6B8C1EEA1A2B4FDBBFAE1
:10392000BBF2D7D4B6AFC7E5CFB4A1A30D0A000050
:10393000C3C5B9D8B1D5A3ACC7D2D3D0B6AFCEEF3B
:10394000A3ACBFAAC6F4B9A4D7F7A3ACB5C8B4FD5D
:10395000BDD3CAD5D6B8C1EEA1A30D0A00000000A0
:10396000CEB4BCECB2E2B5BDB3E8CEEFA1A3C7EBD9
:10397000B7C5C8EBB3E8CEEFA1A30D0A0000000065
:10398000BFD5CFD0CAB1A3ACBCECB2E2B3E8CEEFA6
:10399000CFE4D3D0B3E8CEEFA3ACB7A2CBCDB1A8E0
:1039A000BEAFA1A30D0A000000BFFEE710B51B4883
:1039B000006A4EF6602188422ED9194800781228F4
:1039C0002ADB0020154908621648007816498870DD
:1039D00014484078C8701348807808711148C0783E
:1039E000487112480078887111480078C8710A211E
:1039F0000D4800F0BBFA01280ED14FF6FF730A22E2
:103A000009490C48FFF728FE0BA002F04DFA0D48BB
:103A10000078401C0B49087010BD0000D402002043
:103A2000320000205A0000203B00002059000020F6
:103A30005E00002050040020D0C4CCF8A1A30D0AE1
:103A4000000000006600002010B50446012C02D0E2
:103A5000032C18D112E00F48C06A40F2DC518842B2
:103A600007D300210C48FFF7C5F805200B49087063
:103A700003E000210848FFF791F809E0002106481B
:103A8000FFF78CF804E000210348FFF7B3F800BF0C
:103A900000BF10BDD4020020D00300206B00002026
:103AA0000EB5002000900190029012481249086063
:103AB000002111488160017301754FF40021C1613B
:103AC00000200D49486001210B480161FDF724FDEC
:103AD00008B1FDF731FC0420009001200190052081
:103AE000029069460448FDF767FC08B1FDF724FC25
:103AF0000EBD0000002401402003002000B585B069
:103B00000020019002900390049000BF64488069F7
:103B100040F02000624988610846806900F020007A
:103B2000009000BF00BF00BF0846806940F0100051
:103B300088610846806900F01000009000BF00BF57
:103B400000BF0846806940F004008861084680692B
:103B500000F00400009000BF00BF00BF084680696D
:103B600040F0080088610846806900F00800009075
:103B700000BF00BF012241F2C3114A48FEF730F8EE
:103B800001224FF4B8714848FEF72AF8012245F2A5
:103B900011014648FEF724F8012204214448FEF7AB
:103BA0001FF800224FF460714048FEF719F841F207
:103BB0008720019000200290039001A93A48FDF768
:103BC00067FEC32001901120029000200390032083
:103BD000049001A93348FDF75BFE4FF402600190A9
:103BE00000200290039001A92E48FDF751FE3020DD
:103BF000019011200290002003900320049001A95D
:103C00002948FDF745FE45F2910001900120029000
:103C1000002003900320049001A92448FDF738FEFA
:103C20004AF22A00019000200290039001A91F4847
:103C3000FDF72EFE4FF4A0700190012002900020AD
:103C400003900320049001A91748FDF721FE4FF4CB
:103C500088500190012002900020039003200490DE
:103C600001A91048FDF714FE0420019001200290E4
:103C7000002003900320049001A90D48FDF708FEE1
:103C80004FF4407001901120029000200390032017
:103C9000049001A90548FDF7FBFD05B000BD00003B
:103CA000001002400008014000100140000C0140DB
:103CB0000014014000B587B00020039004900590E7
:103CC0000690019002901548154908604720486009
:103CD0000021134881604FF49671C1600021016199
:103CE00041618161FEF7B2FC08B1FDF725FB4FF49D
:103CF0008050039003A90A48FEF731FD08B1FDF793
:103D00001BFB00200190029001A90548FEF774FCFE
:103D100008B1FDF711FB07B000BD0000002C014009
:103D20005003002000B587B0002003900490059058
:103D30000690019002904FF080401449086047209F
:103D4000486000211148816040F2E731C1600021E4
:103D500001618161FEF77AFC08B1FDF7EDFA4FF4DD
:103D60008050039003A90948FEF7F9FC08B1FDF75C
:103D7000E3FA00200190029001A90448FEF73CFC00
:103D800008B1FDF7D9FA07B000BD0000900300208C
:103D900000B58DB0002009900A900B900C90079010
:103DA00008901C216846FCF7E6F920482049086085
:103DB0004720486000211E4881604FF49671C16021
:103DC000002101618161FEF741FC08B1FDF7B4FA01
:103DD0004FF48050099009A91548FEF7C0FC08B1BE
:103DE000FDF7AAFA1248FEF7BCFE08B1FDF7A4FAE7
:103DF00000200790089007A90D48FEF7FDFB08B1C9
:103E0000FDF79AFA60200090322001900020029085
:103E10000490002269460648FEF71FFE08B1FDF730
:103E20008BFA0348FEF7ECFD0DB000BD0008004022
:103E3000D003002010B50B480B4908604FF4E13067
:103E40004860002108488160C16001610C21416126
:103E500000218161C161FEF7E7FF08B1FDF76CFA4F
:103E600010BD0000004C00401004002010B50B48AD
:103E70000B4908604FF4E130486000210848816038
:103E8000C16001610C21416100218161C161FEF7C6
:103E9000CBFF08B1FDF750FA10BD0000003801401B
:103EA0005004002010B50B480B4908604FF4165021
:103EB0004860002108488160C16001610C214161B6
:103EC00000218161C161FEF7AFFF08B1FDF734FA4F
:103ED00010BD0000004400409004002010B50B48C5
:103EE0000B4908604FF4E1304860002108488160C8
:103EF000C16001610C21416100218161C161FEF756
:103F000093FF08B1FDF718FA10BD0000004800400B
:103F1000D004002000BFFEE770B502460B464FF606
:103F2000FF71002412E0105D414000250AE001F01D
:103F3000010020B149084AF20100414000E049086F
:103F4000681CC5B2082DF2DB601CC4B2981EA042EA
:103F5000E9DC105CCEB2B04206D1581E105CB0EB6A
:103F6000112F01D1012070BD0020FCE770B5024681
:103F70000B464FF6FF71002412E0105D4140002512
:103F80000AE001F0010020B149084AF20100414075
:103F900000E04908681CC5B2082DF2DB601CC4B201
:103FA000981EA042E9DC1154C1F30726581E16548E
:103FB000012070BD7047000010B53C48806A41F296
:103FC000707188421ED93A48007812281ADB002006
:103FD0003649886237480078401C364908700846E0
:103FE0000078032807DD34480078022803DA00202F
:103FF0000870314908704FF6FF7308222F49304886
:10400000FFF72AFB2F4890F80101012812D1002068
:104010002C4981F8010108464179007901EB002023
:104020000A2190FBF1F028490880FF212548401C17
:10403000FCF7A1F824480088462835DB234800789F
:10404000022831D01C480078401C1B4908700846E3
:104050000078022828DB002008701D4800781D49E0
:1040600088701B484078C8701948807808711848D3
:10407000C07848710020887113480078C8710A21FF
:104080001448FFF773FF01280ED14FF6FF730A2281
:1040900010491148FFF7E0FA10A001F005FF0020D9
:1040A0000549087008490880002010BDD40200208E
:1040B000320000206A0000205F0000203300002052
:1040C00090040020AF010020780000202C00002088
:1040D0005A0000204500002050040020D4EBC9F90C
:1040E000B1A8BEAFA1A30D0A0000000010B50020CA
:1040F0000C494863002210210B48FDF771FD4FF475
:104100007A70FDF7DFF8012210210748FDF768FDFE
:10411000C820FDF7D7F8002204210448FDF760FD10
:1041200010BD0000D4020020000C0140001401402A
:104130007047000008B508490968C9084FF47A7249
:10414000B1FBF2F14143009100BF00BF00994A1E4C
:1041500000920029F9D108BD9000002010B5002080
:1041600001F088FF5D4908600846006818B10846FC
:104170000068FF2803D100205949087015E057480E
:104180000068012802D1564908700EE053480068C3
:1041900002280AD15249087052A001F085FEFF2082
:1041A0004F4988700020594988614D48007818B9F6
:1041B00057A001F079FE0EE049480078012803D1AC
:1041C00058A001F071FE06E045480078022802D1AF
:1041D00059A001F069FE20215D48FDF7F9FC08B304
:1041E0005C480078F0B901205B49087059490870B3
:1041F000002204215948FDF7F3FC4FF4FA70FDF753
:1042000061F857A001F050FE08215A48FDF7E0FC84
:1042100020B90121584880F8141103E000215648C4
:1042200080F81411022001F025FF012812D0534814
:10423000007802280ED0022001F01CFF044621461F
:104240004FA001F031FE13205A49087000205A494E
:10425000087014E04948007802280DD057A001F0FA
:1042600023FE1320534908700120534908704DF272
:10427000D8602649086202E057A001F015FE3548D3
:104280000078012829D13D48007830B3584800789B
:104290005849887056484078C870554880780871E9
:1042A0005348C0784871032088710120C8710A21E1
:1042B0005048FFF75BFE01280FD14FF6FF730A222B
:1042C0004C494D48FFF7C8F94CA001F0EDFD012025
:1042D0002149087000200D49C86210BD74000020FB
:1042E0002C000020BFAACABCC7BFD6C6C7E5CFB442
:1042F000A3ACB2BDD6E831A3ACD1D3CAB13230C37E
:10430000EBC5D0B6CFA1A30D0A000000D402002057
:10431000C9E8B1B8D4DABFD5CFD0C4A3CABDA1A370
:104320000D0A0000C9E8B1B8D4DAB9A4D7F7D6D0DD
:10433000A1A30D0A00000000C9E8B1B8D4DAC7BFD4
:10434000D6C6C7E5CFB4C4A3CABDA1A30D0A000059
:1043500000080140600000206B00002000140140B4
:10436000C3C5D4DABFAAC6F4D7B4CCACA1A30D0A96
:1043700000000000000C01409800002031000020E7
:104380005749464920C4A3BFE9B5DAD2BBB4CEC66B
:10439000F4B6AFA3ACCEB4C5E4D6C3A3ACBDF8C8E5
:1043A000EBC5E4D6C3C4A3CABDA3A12025640D0AEE
:1043B000000000003200002030000020574946492C
:1043C00020C1ACBDD3D6D0A3ACB5C8B4FDD0C4CC4D
:1043D000F8A1A30D0A0000004154C3FCC1EEC5E4DE
:1043E000D6C377696669BFAACABCA1A30D0A00003B
:1043F0005A0000204500002050040020CEB4B7A28F
:10440000CBCDD6B8C1EECAB1A3ACC3C5BFAAC6F462
:10441000B1A8BEAFA1A30D0A0000000070470000C4
:10442000012080F3138800BF00BF00BF00BF00BFA2
:1044300000BFBFF34F8F00BF00BF00BF0948006837
:1044400000F4E06008490843001D0649086000BF09
:1044500000BF00BFBFF34F8F00BF00BF00BF00BF52
:1044600000BFFDE70CED00E00000FA0530B50146A5
:10447000481EB0F1807F01D3012030BD481E4FF0AF
:10448000E022506150170F22002804DB13071C0E96
:10449000094B1C5406E013071D0E084B00F00F04D7
:1044A000241F1D5500BF00204FF0E022906107201F
:1044B00010610020E1E7000000E400E018ED00E0FA
:1044C00010B5FDF7ABFB10BD00B595B028210BA8CA
:1044D000FBF751FE142106A8FBF74DFE1821684694
:1044E000FBF749FE01200B9000040C9000200D907A
:1044F00001200F9002201290C10313914FF4E0119C
:1045000014910BA8FDF72AFE08B1FCF715FF0F2048
:10451000069002200790002008904FF480600990D8
:1045200000200A90022106A8FDF7E2FC08B1FCF782
:1045300003FF02200090800302906846FDF740FCD4
:1045400008B1FCF7F9FE15B000BD00001148006885
:1045500040F001000F490860084640680E490840D5
:104560000C494860084600680C4908400949086041
:104570000846006820F4802008600846406820F45F
:10458000FE0048604FF41F008860C80304490860BB
:1045900070470000001002400000FFF8FFFFF6FE29
:1045A00008ED00E010B50248FEF75EF910BD00000E
:1045B0005003002010B50248FEF756F910BD000068
:1045C0009003002010B50248FEF74EF910BD000020
:1045D000D003002010B50268204B98420ED0204B2B
:1045E00098420BD0B0F1804F08D01E4B984205D0B6
:1045F0001D4B984202D01D4B984203D122F070020D
:104600004B681A43154B98420ED0154B98420BD06D
:10461000B0F1804F08D0134B984205D0124B98420E
:1046200002D0124B984203D122F44072CB681A4355
:1046300022F080034C6943EA040202608B68C36283
:104640000B688362054B984202D0054B984201D11A
:104650000B6903630123436110BD0000002C01407E
:10466000003401400004004000080040000C0040FD
:1046700030B501F01F05012404FA05F3046A9C43D8
:104680000462046A01F01F0502FA05F52C43046276
:1046900030BD30B50C46816821F47F4142EA0325E4
:1046A00025432943816030BD0A46816821F07001AD
:1046B00042F00703194381607047000030B5056A76
:1046C00025F001050562026A4368846924F07004DC
:1046D00024F003040D682C4322F002028D682A4363
:1046E000104DA84200D103E00F4DA84206D100BFF3
:1046F00022F00802CD682A4322F00402094DA842A4
:1047000002D0094DA84207D123F4807323F400732B
:104710004D692B438D692B43436084614D6845632C
:10472000026230BD002C01400034014030B5056A02
:1047300025F010050562026A4368846924F4E044A8
:1047400024F440740D6844EA052422F020028D68A8
:1047500042EA0512124DA84200D103E0114DA842D1
:1047600007D100BF22F08002CD6842EA051222F094
:1047700040020B4DA84202D00A4DA84209D123F4B1
:10478000806323F400634D6943EA85038D6943EA3E
:104790008503436084614D688563026230BD00001B
:1047A000002C01400034014030B5056A25F48075C5
:1047B0000562026A4368C46924F0700424F00304AB
:1047C0000D682C4322F400728D6842EA0522124DD6
:1047D000A84200D103E0114DA84207D100BF22F446
:1047E0000062CD6842EA052222F480620A4DA842A6
:1047F00002D00A4DA84209D123F4805323F4005378
:104800004D6943EA05138D6943EA05134360C461AA
:104810004D68C563026230BD002C01400034014088
:1048200030B5056A25F480550562036A4468C2699B
:1048300022F4E04222F440720D6842EA052223F499
:1048400000538D6843EA0533084DA84202D0084D55
:10485000A84204D124F480444D6944EA851444609C
:10486000C2614D680564036230BD0000002C014048
:104870000034014030B50B461446026A056A25F043
:1048800001050562816921F0F00141EA041122F07D
:104890000A021A438161026230BD30B50B461446EC
:1048A000056A25F0100505628169026A21F47041EC
:1048B00041EA043122F0A00242EA0312816102625D
:1048C00030BD70B505466C6A0020E085E084204666
:1048D000FEF703FA70BD0168C96821F4907102689F
:1048E000D1600168496921F001010268516120210C
:1048F00080F83A10704710B504462068C06820F070
:1049000040002168C860202084F839002046FEF766
:104910000EFF002010BD70B5044694F83A0022281E
:104920004AD1A068B0F5805F13D1A56A206940B96B
:1049300020684068C0F308002880A06A801CA0623C
:1049400019E020684068C0B22880A06A401CA062BC
:1049500011E0206938B920684068C1B2A26A501CD1
:10496000A062117007E02068406800F07F01A26A31
:10497000501CA0621170E08D401E80B2E085C8B965
:104980002068C06820F020002168C8602068C068E6
:1049900020F480702168C8602068406920F0010020
:1049A00021684861202084F83A002046FEF7A6FBE3
:1049B000002070BD0020FCE70220FAE770B5044635
:1049C0002168096921F44051E268114322681161AC
:1049D0002269A1681143626941EA02052168C96838
:1049E00041F20C62914329432268D16021684969F0
:1049F00021F44071A269114322685161564A21682D
:104A0000914254D1FDF750FB00EBC00101EB0011C6
:104A100062689200B1FBF2F100EBC00202EB0012FF
:104A200063689B00B2FBF3F26423B2FBF3F202EB88
:104A3000C20303EB0212A1EB8201322202EB01114D
:104A40006422B1FBF2F101F0F00100EBC00202EBD5
:104A5000001263689B00B2FBF3F26423B2FBF3F233
:104A600001EB021200EBC00101EB001163689B0037
:104A7000B1FBF3F100EBC00303EB00136668B60073
:104A8000B3FBF6F36426B3FBF6F303EBC30606EBC6
:104A90000313A1EB8301322303EB01116423B1FB68
:104AA000F3F101F00F0111442268916053E0FDF72A
:104AB000EBFA00EBC00101EB001162689200B1FB60
:104AC000F2F100EBC00202EB001263689B00B2FB44
:104AD000F3F26423B2FBF3F202EBC20303EB021224
:104AE000A1EB8201322202EB01116422B1FBF2F14F
:104AF00001F0F00100EBC00202EB001263689B00C2
:104B0000B2FBF3F26423B2FBF3F201EB021200EB0F
:104B1000C00101EB001163689B00B1FBF3F100EBF6
:104B2000C00303EB00136668B600B3FBF6F364261C
:104B3000B3FBF6F303EBC30606EB0313A1EB830110
:104B4000322303EB01116423B1FBF3F101F00F01F8
:104B500011442268916070BD00380140014691F80F
:104B6000390021282CD18868B0F5805F0FD10A6AFE
:104B70001088C0F308000B685860086918B9086A03
:104B8000801C086209E0086A401C086205E00B6AA4
:104B9000581C086218780B685860C88C401E80B298
:104BA000C88458B90868C06820F080000B68D860D5
:104BB0000868C06840F040000B68D860002070476B
:104BC0000220FCE72DE9F04104460D4617469846C1
:104BD000069E21E0701CF8B12EB1FDF707F8A0EB9E
:104BE0000800B04218D92068C06820F4D07021684D
:104BF000C8602068406920F00100216848612020D9
:104C000084F8390084F83A0000BF002084F83800A6
:104C100000BF0320BDE8F081206800682840A8425A
:104C200001D1012000E00020B842D3D00020F1E7FC
:104C300010B50248FEF752F810BD000050040020E5
:104C400010B50248FEF74AF810BD0000900400209D
:104C500010B5FA4890F80101012841F08A8000203F
:104C6000F64981F80101F6480078022841D108464A
:104C700090F8090110283CD0F2480078C0F3800079
:104C8000002836D101F2031000210160416001814A
:104C9000AA20EA4981F80D01AA21E84880F80E11FE
:104CA000E9480178E54880F80F11E7484178E34882
:104CB00080F81011E4488178E04880F81111E2484A
:104CC000C178DE4880F81211112180F813110A21F1
:104CD00000F20D10FFF74AF9012809D14FF6FF73D2
:104CE0000A22DA49DA48FEF7B7FCDAA001F0DCF86C
:104CF00010BDD24890F80901152880F03A87DFE806
:104D000010F0380715004D00A6002C01A80226035C
:104D10009F032C0438076F05C4058E05FE0608079F
:104D20001A07BE06380722072C073607C34890F833
:104D30000A0101282DD10220D04908702021D04835
:104D4000FCF746FFF0B9CFA001F0AEF8FFF7CEF9BF
:104D50002021CB48FCF73CFF012804D10121B748B2
:104D600080F8141115E0CCA001F09EF8B548007849
:104D700020F00100401CB34908700021AF4880F8C2
:104D8000141106E0C7A001F08FF80221AB4880F8AB
:104D900014110121A94880F81311DDE3A74890F808
:104DA0000A01012830D1C4A001F07EF80821C848CA
:104DB000FCF70EFF00BB00220421C648FCF710FFE1
:104DC0004FF4FA70FCF77EFA0821C148FCF700FFA7
:104DD000012804D10121994880F8141132E0012200
:104DE0000421BC48FCF7FCFEBBA001F05DF80021EB
:104DF000924880F8141125E0BBA001F055F802217B
:104E00008E4880F814111DE0BDA001F04DF801227C
:104E10000421B048FCF7E4FE4FF4FA70FCF752FAB4
:104E20000821AB48FCF7D4FE012807D1BAA001F055
:104E30003BF80121814880F8141103E000217F48EC
:104E400080F8141102217D4880F81311A5E77B48F2
:104E500090F80A0101284CD1B4A001F025F84FF4D4
:104E60008051BA48FCF7B4FEA0BB00224FF4805139
:104E70008348FCF7B5FE4FF4FA70FCF723FA4FF4C1
:104E80008051B248FCF7A4FE01280FD1B049087048
:104E90000020B04988636B48007820F00800694919
:104EA00008700121654880F8141151E0AAA000F0B3
:104EB000FBFF6448007820F0080008306149087062
:104EC000012211036E48FCF78BFE00215B4880F83D
:104ED00014113DE0FFE7A4A000F0E6FF5948007878
:104EE00020F00800574908700221544880F8141136
:104EF0002EE0A3A000F0D8FF012211036048FCF7C8
:104F00006FFE4FF4FA70FCF7DDF94FF480518F48D3
:104F1000FCF75EFE01280ED19FA000F0C5FF4948B6
:104F2000007820F008000830464908700121434805
:104F300080F814110CE09DA000F0B6FF4148007805
:104F400020F008003F49087000213C4880F8141107
:104F500003213A4880F813111FE7384890F80A01F6
:104F6000012847D196A000F09FFF4FF4006144480C
:104F7000FCF72EFEA8BB00224FF480714048FCF7DE
:104F80002FFE4FF4FA70FCF79DF94FF400613C4896
:104F9000FCF71EFE012810D100206E494861022056
:104FA0008E4908702748007820F0100025490870C5
:104FB0000121224880F8141146E189A000F074FF15
:104FC0002048007820F0100010301E49087001229F
:104FD00011022B48FCF704FE0021184880F8141138
:104FE00032E1FFE782A000F05FFF0221134880F862
:104FF000141129E184A000F057FF0122110220487A
:10500000FCF7EEFD4FF4FA70FCF75CF94FF4006129
:105010001B48FCF7DDFD01280ED181A000F044FF04
:105020000848007820F0100010300649087001216F
:10503000024880F8141107E1FCE00000980000200D
:105040002C0000205E0000205A000020A501002056
:1050500050040020BEDCBEF8B2D9D7F7A3ACD4DA36
:10506000C7BFD6C6CFFBB6BEB9FDB3CCD6D0A3ACB6
:10507000BBD8B8B4A1A30D0A000000006000002056
:1050800000080140CAD5B5BDBFAAC3C5D6B8C1EE98
:10509000A1A30D0A00000000C3C5B9CAD5CFA1A3C2
:1050A0000D0A0000C3C5D4DAB4F2BFAAD7B4CCACA1
:1050B000A1A30D0A00000000CAD5B5BDBFAAB9F171
:1050C000C3C5B5C6D6B8C1EEA1A30D0A0000000045
:1050D000000C014000140140B9F1C3C5B5C6B9CAFE
:1050E000D5CFA1A30D0A0000B9F1C3C5B5C6D2D171
:1050F000D4DAB4F2BFAAD7B4CCACA1A30D0A000095
:10510000CAD5B5BDB9D8B9F1C3C5B5C6D6B8C1EE13
:10511000A1A30D0A00000000B9D8B9F1C3C5B5C6F6
:10512000B9CAD5CFA1A30D0A00000000CAD5B5BDEC
:10513000BFAACEB9CBAEB7A7D6B8C1EEA3ACCEB995
:10514000CBAE3135C3EBA1A30D0A00000010014026
:1051500063000020D4020020CEB9CBAEB7A7B9CAF5
:10516000D5CFA1A30D0A0000CEB9CBAEB7A7D4DA34
:10517000B4F2BFAAD7B4CCACA1A30D0A00000000C2
:10518000CAD5B5BDB9D8CEB9CBAEB7A7D6B8C1EEE2
:10519000A1A30D0A00000000B9D8CEB9CBAEB7A7C5
:1051A000B9CAD5CFA1A30D0A00000000CEB9CBAE7D
:1051B000B7A7D4DAB9D8D7B4CCACA1A30D0A0000F4
:1051C000CAD5B5BDBFAACEB9CAB3B7A7D6B8C1EEC6
:1051D000A3AC3130C3EBA1A30D0A00006400002092
:1051E000CEB9CAB3B7A7B9CAD5CFA1A30D0A0000DB
:1051F000CEB9CAB3B7A7D4DAB4F2BFAAD7B4CCAC8D
:10520000A1A30D0A00000000CAD5B5BDB9D8CEB91A
:10521000CAB3B7A7D6B8C1EEA1A30D0A000000001B
:10522000B9D8CEB9CAB3B7A7B9CAD5CFA1A30D0A09
:1052300000000000FE48007820F01000FC490870D3
:105240000021FC4880F814110421FA4880F8131159
:10525000A3E5F84890F80A01012847D1F6A000F02C
:1052600023FE4FF40071FA48FCF7B2FC78BB002231
:105270004FF48071F648FCF7B3FC4FF47A70FCF7FA
:1052800021F84FF40071F248FCF7A2FC01280AD182
:10529000E748007820F02000E54908700121E54842
:1052A00080F814114EE0EBA000F0FEFDE04800781D
:1052B00020F020002030DE49087001221102E4486D
:1052C000FCF78EFC0021DB4880F814113AE0FFE780
:1052D000E4A000F0E9FDD648007820F02000D44991
:1052E00008700221D34880F814112BE0E3A000F0ED
:1052F000DBFD01221102D648FCF772FC4FF4FA7074
:10530000FBF7E0FF4FF40071D148FCF761FC012886
:105310000ED1E0A000F0C8FD0121C64880F81411AC
:10532000C348007820F020002030C149087009E00F
:10533000BF48007820F02000BD4908700021BD481A
:1053400080F814110521BB4880F8131125E5B948F0
:1053500090F80A01012843D1D3A000F0A5FD8021D7
:10536000BB48FCF735FC68BB00224021B848FCF77D
:1053700037FC4FF4FA70FBF7A5FF8021B448FCF727
:1053800027FC01280AD1AA48007820F04000A8494B
:1053900008700121A74880F814114CE0C8A000F063
:1053A00083FDA348007820F040004030A0490870F9
:1053B00001224021A648FCF713FC00219D4880F8FB
:1053C000141138E0C2A000F06FFD9948007820F079
:1053D0004000974908700221964880F814112AE08D
:1053E000C1A000F061FD012240219948FCF7F8FBC3
:1053F0004FF4FA70FBF766FF80219548FCF7E8FB55
:1054000001280ED1BEA000F04FFD8948007820F0A1
:1054100040004030864908700121864880F8141108
:1054200009E08348007820F040008149087000219D
:10543000804880F8141106217E4880F813119DE3FE
:105440007C4890F80A0101284FD1B2A000F02CFD51
:105450004FF40041B548FCF7BBFBD0BB00224FF432
:105460008041B248FCF7BCFB4FF47A70FBF72AFF8F
:105470004FF40041AD48FCF7ABFB012815D10121E9
:105480006C4880F814116A48007820F08000684960
:1054900008700020A64908640120A6490870002071
:1054A000A5490870A549087052E0A5A000F0FCFCD1
:1054B0000021604880F814115D48007820F08000D9
:1054C00080305B490870012291039848FCF788FB03
:1054D0003EE0FFE70221574880F814115448007855
:1054E00020F080005249087032E000209149087095
:1054F000914908709149087095A000F0D5FC0122EF
:1055000091038A48FCF76CFB4FF4FA70FBF7DAFE64
:105510004FF400418548FCF75BFB01280ED192A0B7
:1055200000F0C2FC0121434880F814114048007883
:1055300020F0800080303E49087009E000213D489D
:1055400080F814113A48007820F08000384908703B
:105550000721384880F8131110E3364890F80A0103
:10556000012846D185A000F09FFC4FF400516F4800
:10557000FCF72EFBB8BB02216C48FCF729FB90BB63
:1055800000224FF480516948FCF72AFB00220121D8
:105590006648FCF725FB4FF4FA70FBF793FE4FF4D7
:1055A00000516248FCF714FB01280AD102215F4830
:1055B000FCF70EFB012804D101211E4880F81411CC
:1055C00009E1012211035948FCF70AFB01221146A7
:1055D0005648FCF705FB6FA000F066FC002115485B
:1055E00080F81411F7E0FFE70221124880F8141147
:1055F000F1E06CA000F058FC012211034B48FCF7CD
:10560000EFFA012211464948FCF7EAFA4FF4FA7022
:10561000FBF758FE4FF400514448FCF7D9FA28B97B
:1056200002214248FCF7D4FA00B9C7E0CBE0000001
:105630005E00002098000020CAD5B5BDBFAAD3EAFD
:10564000CBA2C6F7D6B8C1EEA1A30D0A0000000098
:1056500000100140D3EACBA2C6F7B9CAD5CFA1A3A7
:105660000D0A0000D3EACBA2C6F7D4DAB4F2BFAA7F
:10567000D7B4CCACA1A30D0A00000000CAD5B5BDBB
:10568000B9D8D3EACBA2C6F7D6B8C1EEA1A30D0A0A
:1056900000000000B9D8D3EACBA2C6F7B9CAD5CF6B
:1056A000A1A30D0A00000000CAD5B5BDBFAAC7E579
:1056B000CFB4B1C3D6B8C1EEA1A30D0A000000005B
:1056C000C7E5CFB4B1C3B9CAD5CFA1A30D0A0000B5
:1056D000C7E5CFB4B1C3D4DAB4F2BFAAD7B4CCAC67
:1056E000A1A30D0A00000000CAD5B5BDB9D8C7E511
:1056F000CFB4B1C3D6B8C1EEA1A30D0A000000001B
:10570000B9D8C7E5CFB4B1C3B9CAD5CFA1A30D0AE3
:1057100000000000CAD5B5BDBFAAB4B5B7E7BBFA53
:10572000D6B8C1EEA1A30D0A00000000000C014094
:10573000D4020020670000206800002069000020DB
:10574000B4B5B7E7BBFAB9CAD5CFA1A30D0A00001B
:10575000CAD5B5BDB9D8B4B5B7E7BBFAD6B8C1EEAE
:10576000A1A30D0A00000000B9D8B4B5B7E7BBFA91
:10577000B9CAD5CFA1A30D0A00000000CAD5B5BD96
:10578000BFAABBBBC6F8C9C8D6B8C1EEA1A30D0A53
:1057900000000000BBBBC6F8C9C8B9CAD5CFA1A3D9
:1057A0000D0A0000CAD5B5BDB9D8BBBBC6F8C9C87B
:1057B000D6B8C1EEA1A30D0A000000000021FE48EA
:1057C00080F8141107E0AFF2200000F06DFB01211A
:1057D000F94880F814110821F74880F81311CDE139
:1057E000F54890F80A01012808D1F4A000F05CFB0C
:1057F00001228021F848FCF7F3F907E0F7A000F058
:1058000053FB00228021F448FCF7EAF9EA4890F8BB
:105810000A1180F814110A2180F81311AEE1E6484C
:1058200090F80A01012818D1F3A000F03DFB0020F8
:10583000F84988610220F8490870F8A000F034FBAC
:10584000FF20F549887008460178002000F06AFCC6
:105850000121D94880F8141112E0D74890F81401BA
:1058600070B9F8A000F020FB0020EB490870084652
:105870000178002000F056FC0021CF4880F8141178
:105880000B21CD4880F8131178E1E3480078022815
:1058900007D1FF21C84880F81411F1A000F004FBE3
:1058A000E8E0C54890F80A01012878D1DA48007884
:1058B000012807D1EE21C04880F81411ECA000F0B7
:1058C000F3FAD7E00220EE490870EEA000F0ECFAFF
:1058D0004FF40051C048FCF77BF920B10221BE48CB
:1058E000FCF776F950B900224FF48051BA48FCF722
:1058F00077F900220121B848FCF772F92021E54828
:10590000FCF766F990BBFEF7F1FB2021E148FCF7BC
:105910005FF9012813D0E048007820F00100401C16
:10592000DD4908700020BC49087008460178002055
:1059300000F0F8FB0021A04880F814119AE0D7A0ED
:1059400000F0B2FA0120B44908708870D24800789B
:1059500020F00100D0490870AF480178002000F025
:10596000E1FB0121944880F8141183E0FFE7D4A003
:1059700000F09AFA0120A84908708870C64800789B
:1059800020F00100C4490870A3480178002000F00D
:10599000C9FB0221884880F814116BE0FFE78648B4
:1059A00090F80A01002865D1D0A000F07DFA03200C
:1059B000B34908704FF400518748FCF709F90128F2
:1059C00005D002218448FCF703F9012809D10122FE
:1059D00011038148FCF704F9012211467E48FCF7C7
:1059E000FFF82021AB48FCF7F3F890BBFEF77EFBF5
:1059F0002021A848FCF7ECF801280ED0A648007832
:105A000020F00100401CA449087001208249087060
:105A10000021694880F814112CE09F48007820F09C
:105A200001009D49087002207B49087008460178F2
:105A3000002000F077FB01215F4880F81411AFA02F
:105A400000F032FA002073498861FF2072498870A3
:105A500010E0FFE7022070490870A8A000F024FAC7
:105A600000206C498861FF206B49887002215248F0
:105A700080F814110B21504880F813117EE0A9A082
:105A800000F012FA20218348FCF7A2F830BBFEF7A1
:105A90002DFB20217F48FCF79BF801280BD07E4886
:105AA000007820F00100401C7B490870002142482A
:105AB00080F814111EE000205749087076480078DD
:105AC00020F001007449087001213B4880F814114E
:105AD00051480178002000F025FB0BE000204E49E2
